:020000041004E6
:100000000000012081D80510E5DB0510EDDB0510AF
:1000100000000000000000000000000000000000E0
:10002000000000000000000000000000F5DB0510EB
:100030000000000000000000F7DB0510F9DB0510F0
:100040001B5104102353041017660410D77A0410B0
:10005000000000000000000000000000C37B04104E
:1000600001DC05105B800410F7800410138F04106E
:10007000079004101BDC0510000000004DDC05108B
:100080004B960410D39904103DDC051000000000CD
:1000900035DC051000000000000000002DDC05101C
:1000A000F79A041045DC0510DF9B041013A204101E
:1000B0008BA30410000000000000000000000000FE
:1000C000740F00209E36000006000104000032007C
:1000D000F7000000FFFFFFFF6400011008000103AC
:1000E000F70001000001010202020200000100030A
:1000F000000400004572726F7220696E20424C4508
:100100005F535441434B5F496E697428292030780E
:10011000253032780D0A000020204661696C2020CD
:10012000203A206163695F68616C5F77726974650A
:100130005F636F6E6669675F6461746120636F6D92
:100140006D616E64202D20434F4E4649475F444108
:1001500054415F505542414444525F4F46465345D7
:10016000542C20726573756C743A203078253032C7
:10017000580A00002020537563636573733A206149
:1001800063695F68616C5F77726974655F636F6EE6
:100190006669675F6461746120636F6D6D616E6431
:1001A000202D20434F4E4649475F444154415F5004
:1001B0005542414444525F4F46465345540A00005D
:1001C00020204661696C2020203A206163695F68C5
:1001D000616C5F7365745F74785F706F7765725F71
:1001E0006C6576656C20636F6D6D616E642C20723A
:1001F0006573756C743A203078253032580A0000E7
:100200002020537563636573733A206163695F6887
:10021000616C5F7365745F74785F706F7765725F30
:100220006C6576656C20636F6D6D616E640A0000AD
:1002300020204661696C2020203A206163695F6755
:100240006174745F7372765F70726F66696C655FFC
:10025000696E697420636F6D6D616E642C207265C8
:1002600073756C743A203078253032580A000000DB
:100270002020537563636573733A206163695F6718
:100280006174745F7372765F70726F66696C655FBC
:10029000696E697420636F6D6D616E640A000000A1
:1002A00020204661696C2020203A206163695F67E5
:1002B00061705F696E697420636F6D6D616E642C2F
:1002C00020726573756C743A203078253032580A84
:1002D000000000002020537563636573733A20614A
:1002E00063695F6761705F696E697420636F6D6DCC
:1002F000616E640A0000000020205075626C696322
:1003000020426C7565746F6F746820416464726517
:1003100073733A20253032783A253032783A2530D6
:1003200032783A253032783A253032783A253032F0
:10033000780A000020204661696C2020203A20477E
:1003400061705F70726F66696C655F7365745F641E
:1003500065765F6E616D65202D2044657669636505
:10036000204E616D652C20726573756C743A203077
:1003700078253032580A0000202053756363657376
:10038000733A204761705F70726F66696C655F7366
:1003900065745F6465765F6E616D65202D204465D0
:1003A00076696365204E616D650A00002020466114
:1003B000696C2020203A204761705F70726F666917
:1003C0006C655F7365745F617070656172616E63A7
:1003D00065202D20417070656172616E63652C200F
:1003E000726573756C743A203078253032580A0083
:1003F0002020537563636573733A204761705F70A3
:10040000726F66696C655F7365745F61707065615A
:1004100072616E6365202D20417070656172616E3E
:1004200063650A0020204661696C2020203A20681C
:1004300063695F6C655F7365745F64656661756C45
:10044000745F70687920636F6D6D616E642C2072CB
:100450006573756C743A203078253032580A000084
:100460002020537563636573733A206863695F6C1A
:10047000655F7365745F64656661756C745F7068F1
:100480007920636F6D6D616E640A00002020466103
:10049000696C2020203A206163695F6761705F7337
:1004A00065745F696F5F6361706162696C697479BB
:1004B00020636F6D6D616E642C20726573756C7452
:1004C0003A203078253032580A0000002020537539
:1004D00063636573733A206163695F6761705F731B
:1004E00065745F696F5F6361706162696C6974797B
:1004F00020636F6D6D616E640A000000202046610C
:10050000696C2020203A206163695F6761705F73C6
:1005100065745F73656375726974795F726571750F
:100520006972656D656E747320636F6D6D616E6465
:100530002C20726573756C743A20307825303258EF
:100540000A0000002020537563636573733A2061CD
:1005500063695F6761705F7365745F73656375720C
:100560006974795F726571756972656D656E7473B2
:1005700020636F6D6D616E640A000000202046618B
:10058000696C2020203A206163695F6761705F6356
:100590006F6E6669677572655F66696C7465725FB8
:1005A0006163636570745F616E645F7265736F6CC5
:1005B00076696E675F6C69737420636F6D6D616ED1
:1005C000642C20726573756C743A20307825303253
:1005D000580A00002020537563636573733A2061E5
:1005E00063695F6761705F636F6E66696775726587
:1005F0005F66696C7465725F6163636570745F6187
:100600006E645F7265736F6C76696E675F6C697339
:100610007420636F6D6D616E640A00002020466176
:10062000696C2020203A206863695F6C655F7365A0
:10063000745F6576656E745F6D61736B20636F6D5B
:100640006D616E642C20726573756C743A2030781D
:10065000253032580A00000020205375636365730B
:10066000733A206863695F6C655F7365745F657674
:10067000656E745F6D61736B20636F6D6D616E6429
:100680000A00000020204661696C2020203A206189
:1006900063695F68616C5F7365745F726164696FE1
:1006A0005F61637469766974795F6D61736B2063F0
:1006B0006F6D6D616E642C20726573756C743A2079
:1006C00030782532580A0000202053756363657323
:1006D000733A206163695F68616C5F7365745F7210
:1006E0006164696F5F61637469766974795F6D6174
:1006F000736B20636F6D6D616E640A0D0000000006
:100700003E3E3D3D204843495F444953434F4E4E92
:10071000454354494F4E5F434F4D504C4554455F00
:100720004556545F434F44450A00000020202020D6
:10073000202D20436F6E6E656374696F6E20486173
:100740006E646C653A2020203078253032580A20BB
:10075000202020202D20526561736F6E3A202020CA
:10076000203078253032580A000000003E3E3D3DE2
:10077000204843495F4C455F434F4E4E45435449E3
:100780004F4E5F5550444154455F434F4D504C458B
:1007900054455F5355424556545F434F44450A0004
:1007A00020202020202D20436F6E6E656374696FBA
:1007B0006E20496E74657276616C3A202020256443
:1007C0002E25303264206D730A20202020202D2019
:1007D000436F6E6E656374696F6E206C6174656ED5
:1007E00063793A2020202025640A20202020202D13
:1007F000205375706572766973696F6E2054696DE8
:10080000656F75743A2020202564206D730A0000FE
:100810004843495F4C455F504552494F4449435F07
:100820004144564552544953494E475F53594E43EC
:100830005F5452414E534645525F524543454956D7
:1008400045445F56320A00004843495F4C455F50BB
:100850004552494F4449435F4144564552544953D8
:10086000494E475F53594E435F4C4F53540A000063
:100870003E3E3D3D204143495F4741505F50524F0E
:10088000435F434F4D504C4554455F565345565476
:100890005F434F44450A00003E3E3D3D20414349F1
:1008A0005F4741505F4B455950524553535F4E4F40
:1008B00054494649434154494F4E5F565345565457
:1008C0005F434F44450A00003E3E3D3D20414349C1
:1008D0005F4741505F504153534B45595F5245511B
:1008E0005F56534556545F434F44450A000000008D
:1008F0003D3D3E3E206163695F6761705F7061737B
:10090000736B65795F72657370203A204661696C1C
:100910002C20726561736F6E3A2030782530325822
:100920000A0000003D3D3E3E206163695F676170E3
:100930005F706173736B65795F72657370203A20C5
:10094000537563636573730A000000003E3E3D3DCE
:10095000204143495F4741505F4E554D4552494301
:100960005F434F4D50415249534F4E5F56414C5596
:10097000455F56534556545F434F44450A000000B7
:100980003D3D3E3E206163695F6761705F6E756DDE
:10099000657269635F636F6D70617269736F6E5FBB
:1009A00076616C75655F636F6E6669726D5F7965A0
:1009B000736E6F203A204661696C2C2072656173FA
:1009C0006F6E3A203078253032580A003D3D3E3E69
:1009D000206163695F6761705F6E756D65726963E1
:1009E0005F636F6D70617269736F6E5F76616C7556
:1009F000655F636F6E6669726D5F7965736E6F2098
:100A00003A20537563636573730A00003E3E3D3DB3
:100A1000204143495F4741505F50414952494E4749
:100A20005F434F4D504C4554455F56534556545FB8
:100A3000434F44450A00000020202020202D205054
:100A4000616972696E67204B4F0A20202020202D9B
:100A5000205374617475733A203078253032580A07
:100A600020202020202D20526561736F6E3A2030A7
:100A700078253032580A00003E3E3D3D20686369CB
:100A80005F6C655F636F6E6E656374696F6E5F63E5
:100A90006F6D706C6574655F6576656E74202D2072
:100AA000436F6E6E656374696F6E2068616E646C0F
:100AB000653A203078253034580A00002020202064
:100AC000202D20436F6E6E656374696F6E206573B1
:100AD0007461626C6973686564207769746820402A
:100AE0003A253032783A253032783A253032783A21
:100AF000253032783A253032783A253032780A007B
:100B000020202020202D20436F6E6E656374696F56
:100B10006E20496E74657276616C3A2020202564DF
:100B20002E25303264206D730A20202020202D20B5
:100B3000436F6E6E656374696F6E206C6174656E71
:100B400063793A2020202025640A20202020202DAF
:100B5000205375706572766973696F6E2054696D84
:100B6000656F75743A202564206D730A00000000DB
:100B70006863695F6C655F726561645F7068792046
:100B80006661696C7572653A20726561736F6E3D5E
:100B90003078253032580A003D3D3E3E206863697A
:100BA0005F6C655F7365745F706879205048592089
:100BB000506172616D202054583D2025642C2052D4
:100BC000583D202564202D20000000006163695FEE
:100BD0006761705F7465726D696E617465206661CE
:100BE000696C7572653A20726561736F6E3D30781D
:100BF000253032580A0000003D3D3E3E20616369C9
:100C00005F6761705F7465726D696E617465203ACB
:100C100020537563636573730A0000006163695F45
:100C2000676174745F636C745F65786368616E6735
:100C3000655F636F6E666967206661696C75726572
:100C40003A20726561736F6E3D3078253032580AF4
:100C5000000000003D3D3E3E206163695F676174B6
:100C6000745F636C745F65786368616E67655F630A
:100C70006F6E666967203A20537563636573730A04
:100C8000000000003D3D3E3E206163695F6761708A
:100C90005F7365745F6164766572746973696E67AA
:100CA0005F636F6E66696775726174696F6E202D20
:100CB000206661696C2C20726573756C743A203003
:100CC00078253032580A00003D3D3E3E2053756382
:100CD000636573733A206163695F6761705F736511
:100CE000745F6164766572746973696E675F636F60
:100CF0006E66696775726174696F6E0A0000000044
:100D00003D3D3E3E206163695F6761705F7365745E
:100D10005F6164766572746973696E675F6461743C
:100D200061204661696C65642C20726573756C7412
:100D30003A203078253032580A0000003D3D3E3ED2
:100D400020537563636573733A206163695F6761FC
:100D5000705F7365745F6164766572746973696EE0
:100D6000675F646174610A003D3D3E3E20616369D6
:100D70005F6761705F7365745F61647665727469E3
:100D800073696E675F656E61626C65204661696C50
:100D900065642C20726573756C743A203078253048
:100DA00032580A003D3D3E3E2053756363657373C0
:100DB0003A206163695F6761705F7365745F616446
:100DC000766572746973696E675F656E61626C6582
:100DD0000A00000044697361626C65206164766595
:100DE00072746973696E67202D206661696C2C20AE
:100DF000726573756C743A203078253032580A0069
:100E00003D3D3E3E2044697361626C6520616476BD
:100E10006572746973696E67202D2053756363650D
:100E200073730A006163695F6C326361705F636F43
:100E30006E6E656374696F6E5F706172616D65740B
:100E400065725F7570646174655F726571202D20D5
:100E50006661696C2C20726573756C743A20307809
:100E6000253032580A0000003D3D3E3E2061636956
:100E70005F6C326361705F636F6E6E656374696F20
:100E80006E5F706172616D657465725F75706461CB
:100E900074655F726571202D20537563636573738C
:100EA0000A0000006863695F6C655F7365745F6466
:100EB000656661756C745F706572696F6469635FA4
:100EC0006164766572746973696E675F73796E6366
:100ED0005F7472616E736665725F706172616D6579
:100EE00074657273206661696C7572653A2072650B
:100EF00061736F6E3D3078253032580A0000000073
:100F00003D3D3E3E206863695F6C655F7365745F5D
:100F100064656661756C745F706572696F6469633E
:100F20005F6164766572746973696E675F73796E09
:100F3000635F7472616E736665725F706172616D1A
:100F40006574657273203A20537563636573730A21
:100F5000000000006863695F6C655F7365745F70B3
:100F60006572696F6469635F73796E635F737562DD
:100F70006576656E74206661696C7572653A20727B
:100F80006561736F6E3D3078253032580A0000007D
:100F90003D3D3E3E206863695F6C655F7365745FCD
:100FA000706572696F6469635F73796E635F73758F
:100FB000626576656E74203A20537563636573735A
:100FC0000A0000006863695F6C655F7365745F7039
:100FD0006572696F6469635F616476657274697371
:100FE000696E675F726563656976655F656E61628C
:100FF0006C65206661696C7572653A207265617313
:101000006F6E3D3078253032580A00003D3D3E3E3F
:10101000206863695F6C655F7365745F7065726992
:101020006F6469635F6164766572746973696E6722
:101030005F726563656976655F656E61626C652088
:101040003A20537563636573730A00006163695FD7
:101050006761705F7465726D696E61746520666149
:10106000696C7572653A20726561736F6E3D307898
:10107000253032580A0000003D3D3E3E2061636944
:101080005F6761705F7465726D696E617465203A47
:1010900020537563636573730A000000456E642016
:1010A0006F662045534C5F50524F46494C455F4157
:1010B00064765061796C6F616452656365697665C9
:1010C000640A00006C6C5F7365745F706572696FB1
:1010D0006469635F6164766572746973696E675F82
:1010E000726573706F6E73655F646174615F707455
:1010F00072206661696C7572653A20726561736F02
:101100006E3D3078253032582C2053796E635F481D
:10111000616E646C65203078253034582C2052651F
:1011200071756573745F4576656E742025642C2037
:101130005375626576656E742025642C2052657344
:10114000706F6E73655F536C6F742025640A0000C6
:101150003D3D3E3E206C6C5F7365745F70657269E7
:101160006F6469635F6164766572746973696E67E1
:101170005F726573706F6E73655F646174615F70D9
:101180007472203A20537563636573730A0000001C
:1011900000000000020000003000002000000000FD
:1011A00008000000CC020020000000000100000048
:1011B000D80400200000FFFF000000000400000031
:1011C000B411041000000000050000002C0F0020E6
:1011D0000000000001000000AABD04100100000092
:1011E000030000003C0F002020000000FB349B5F48
:1011F0008000008000100000052A000010000000A0
:10120000010000008C030020B81104100A00000047
:10121000FB349B5F8000008000100000292B000041
:10122000100000000000000000000000C4110410C5
:1012300002000000FB349B5F800000800010000073
:101240002A2B000010000000000000000000000039
:101250000000000002000000FB349B5F8000008063
:10126000001000003A2B00001000000000000000F9
:1012700000000000D011041096C298D84539A1F49E
:10128000A033EB2D817D0377F240A463E5E6BCF843
:1012900047422CE1F2D1176BF551BF376840B6CB0E
:1012A000CE5E316B5733CE2B169E0F7C4AEBE78E0A
:1012B0009B7F1AFEE242E34F00F00B100008000093
:1012C000AA02000000F80B10F8070100000000005F
:1012D00096C298D84539A1F4A033EB2D817D0377D0
:1012E000F240A463E5E6BCF847422CE1F2D1176B6B
:1012F000F551BF376840B6CBCE5E316B5733CE2B3E
:10130000169E0F7C4AEBE78E9B7F1AFEE242E34F6C
:10131000CAEBECEDEFF0F1F2F3F4F5F6F7F8F9FAC9
:10132000FAFCFDFDFEFEFFFF0000010203040506BE
:10133000080000009DDB0510A9DB051047DA051049
:10134000F5DA0510C1D805107BD90510686A6C74F0
:101350007A4C00007072696E74665F733A20256E75
:1013600020646973616C6C6F776564007072696E7C
:1013700074663A2062616420256E20617267756D23
:10138000656E74007072696E74665F733A20626194
:101390006420257320617267756D656E74000000AE
:1013A000000000006E616E004E414E00696E6600E6
:1013B000494E460030002E00FB349B5F80000080C9
:1013C00000100000292B000010000000FB349B5F80
:1013D0008000008000100000052A000010000000BE
:1013E00002000000030000000300000006000000EF
:1013F00003000000030000003C000000700000003B
:1014000070000000D003000070000000C301000065
:10141000B5E3051073AC0410D7AF04103BBD041046
:1014200087B30410E12A0410512B04102530041056
:101430002D300410353004103D30041045300410B8
:10144000BDEB0510ED2F0410D52F0410F52F04105F
:10145000032D0410712B04107B2E0410512C04104A
:101460005FAB0410692B0410FDE705102768061018
:1014700015650610276A0610396C0610396C0610BF
:101480004F6D0610276A0610296F0610296F061087
:10149000296F06102B690610CF640610936406109E
:1014A0004F6D0610592B0410612B0410C9720610E1
:1014B000D1720610CD720610A92B0410B12B0410A6
:1014C000B92B0410C12B0410E92B0410D12B0410EC
:1014D000D92B0410E12B0410C92B0410F12B04109C
:1014E000F92B0410012C0410092C0410112C0410E9
:1014F000BFF34F8FA949C1480160BFF34F8F00BFB1
:10150000FDE70000F0B595B0062106A800F03EFE0C
:10151000002469468C81BA4E08A83100342200F0BC
:101520003DFE08A800F070FE002806D00100300043
:10153000343001F0D3F801F0A4F906A80480AA2100
:101540008170E121C170802101710221417106AADF
:101550000621002001F0B8F9002805D00100300074
:10156000583001F0BBF803E03000B43001F0B6F8B9
:101570001821002001F0ACF9002806D001008020DD
:101580004000301801F0AAF804E0A0204000301814
:1015900001F0A4F805A9012001F09EF9002806D069
:1015A0000100B8204000301801F098F804E0D8207D
:1015B0004000301801F092F80021002001F0C0F93D
:1015C000002806D00100F0204000301801F086F815
:1015D00004E085208000301801F080F803A8801C0A
:1015E000009004AB04AA921C0021092001F0B0F97C
:1015F00006A8017802914178019181780091C37821
:10160000027941798E208000301801F067F80021BE
:101610007C4F01E0491CC9B27818007C00280DD02D
:101620000029F7D07A18D27B582AF3D15828F1D163
:1016300079180F316846007E00F047FD00257C5D7B
:10164000781C405D09280CD12819391808785828C9
:1016500007D1491E0878582803D16846007E00F05B
:1016600034FD2D196D1CADB20F2DE8DB3A001032A0
:101670000621002001F0ADF9002806D001009D20D0
:101680008000301801F02AF804E0AE208000301805
:1016900001F024F803AA0221002001F0A0F900289B
:1016A00006D00100BB208000301801F017F804E0DC
:1016B000CC208000301801F011F802220221002015
:1016C00001F0FDFC002806D00100D9208000301870
:1016D00001F004F804E0E8208000301800F0FEFF7C
:1016E0007A4D01240120287001F0B4FC002806D0B6
:1016F0000100F3208000301800F0F0FF03E0744890
:10170000301800F0EBFF6C700820E8701020287192
:10171000AC7000200290102001900820009000235F
:1017200001220121012001F099FC002805D00100CF
:101730006848301800F0D2FF03E06748301800F026
:10174000CDFFA87800280ED0012001F0C4FC0028AD
:1017500005D001006148301800F0C0FF03E0604888
:10176000301800F0BBFF6B460DA203CA03C36846E6
:1017700001F0C1FC002805D001005A48301800F0E3
:10178000ADFF04E0B320C000301800F0A7FF00BF99
:1017900005A000F0A3FF15B0F0BD00000400FA059D
:1017A000FF80FFFF30FFFFFF3D3D3E3E20456E6462
:1017B00020424C455F496E69742066756E6374699A
:1017C0006F6E0A0080B5012101203AE080B501204A
:1017D00001F0A4FC01F0A5FC01F0B6FC002801D149
:1017E000FFF7F0FF3948807B042801D0052801D19C
:1017F00000F09CFC012001F092FC01BD0CED00E02A
:10180000C00004104C02002080B501F093FD01BD22
:1018100080B50021022014E080B502F024FF01BD54
:1018200080B502E080B5FFF7F3FFFFF7CBFF01BD06
:1018300080B502F04BFFFFF7C5FFFFF7E9FF01217D
:10184000042003F04BF801BD10B5274A0021012008
:1018500003F037F8254A0021022003F032F8244A29
:101860000021042003F02DF803F09AF803F022F988
:101870000021C943884201D101F003F8FFF742FE7D
:10188000FFF7A0FF114C0020A0731A48A0811A4A4C
:101890000021402003F015F8184A0021802003F0B1
:1018A00010F81748A061062003F03EF90100154822
:1018B00002D000F013FF02E0443000F00FFF03F00D
:1018C0003BF9012000F0D8FA10BD0000680E00209E
:1018D0000C0400003C04000084040000BC04000070
:1018E000140500005C050000CD1704100918041051
:1018F00019180410FFFF0000BB200410A14E0410B3
:10190000A920041084060410FEB5050028780428D8
:1019100002D0822802D0F7BDE81C00E0281D00900C
:1019200069780027AE4EAF4C052908D0102900D1A8
:10193000A6E13E2927D0FF2900D123E1AAE1287999
:1019400069790906090C0843B189884218D1A6486B
:10195000B081B07B022800D1B773200000F0BEFE3A
:10196000297968790006000C0143AA7920002C30FF
:1019700000F0B4FEB07B062802D0012000F07CFA13
:1019800000F087FBF7BDE978012900D1A7E0032922
:101990000FD00C2900D18FE0102900D1E5E02529D6
:1019A00000D1CFE0262900D1B7E0292900D187E076
:1019B000E5E020006C3000F091FEE879297A090614
:1019C000090C084303F0B4FA0022B44B03F0CAFA3E
:1019D000002280235B0303F087FBE879297A21D872
:1019E0000906090C0843EE79297A0906090C0E4309
:1019F00003F09EFA0022A94B03F0B4FA0090019183
:101A0000300003F095FA0022A44B03F0ABFA03F088
:101A100085FB03F09DFA02000B000098019903F08A
:101A200009FC1EE00906090C0843EE79297A09062B
:101A3000090C0E4303F07CFA0022984B03F092FA53
:101A400003F06CFB03F084FA00900191300003F086
:101A50006FFA0022924B03F085FA009A019B03F083
:101A600086FB00228F4B03F07DFA03F057FBEA7AE6
:101A7000297B0906090C0A436B7AA97A0906090C25
:101A80000B43E9792E7A3606360C31430A25554345
:101A9000009506001D00080003F04AFA00227F4B63
:101AA00003F060FA03F03AFB01002B003200200043
:101AB000A03000F013FEF7BD012002F01FFFF7BDBC
:101AC000E87F6D1CE97F6D1E0906090C08436A7FDB
:101AD000A97F0906090C0A43EB7E297F0BE0E87C0D
:101AE000297D0906090C08436A7CA97C0906090CB2
:101AF0000A43EB7B297C0906090C0B436979AC7915
:101B00002406240C21430290019200932B000933F8
:101B10002A7A287900F03AF9F7BD88204000201889
:101B200000F0DCFD2979002909D10620B073687A1C
:101B3000A97A0906090C084303F018F8F7BD00BF9D
:101B400059A0A8E0287B00280CD1687B002809D088
:101B5000687AA97A0906090C08436A7B29000E31C4
:101B600003F044F800F0E2FAF7BDA420400020188A
:101B700000F0B4FDB773002000F07EF9F7BD00BFA0
:101B80004DA088E00098017842781206120C1143AB
:101B9000091FF3D0891E66D0AD48091A4CD0491EE2
:101BA0000FD0491F07D0891E22D0491E06D0401FE2
:101BB000091AE3D05CE0B82040003BE0CC204000B4
:101BC00038E0E4204000201800F088FDA149B089E9
:101BD00001F052FA002809D00100F820400025E069
:101BE000680E002000070410FFFF0000892020E09D
:101BF00093208000201800F071FD0098001D03F074
:101C000091FB010033A000F069FD0098001D03F076
:101C100089FB010036A000F061FD0121B08901F0CF
:101C20002FFA002804D00100A0208000201832E004
:101C3000B3208000201813E0EF38201800F04EFD8C
:101C400000980179002906D04279CE208000201822
:101C500000F044FD03E000BF2BA000F03FFD7EA09C
:101C600000F03CFDF7BD81782DA000F037FD0FE0BE
:101C7000009A117850780006000C014330A00AE069
:101C8000E97800BF34A000F029FDE878042804DAE0
:101C9000FFF72EFC38A000F021FDF7BD0000F43F57
:101CA0000000F4BF0000594053746174757320251F
:101CB0003032580A000000004843495F4C455F4DF0
:101CC0004554415F4556543A203078253032580A01
:101CD0000000000020202020202D206E756D6572F0
:101CE00069635F76616C7565203D2025640A00009C
:101CF00020202020202D204865785F76616C756556
:101D0000203D2025780A000020202020202D205072
:101D1000616972696E6720537563636573730A0046
:101D20004143495F48414C5F46575F4552524F52CD
:101D30005F5653455654203078253032580A0000FB
:101D40004843495F56454E444F525F4556543A20EA
:101D50003078253034580A004843495F484152449E
:101D6000574152455F4552524F525F4556542030BD
:101D700078253032580A00004843495F4556454EA1
:101D8000543A203078253032580A0000F2B584B039
:101D90001C000A9D314800F0A1FC20780290607878
:101DA0000190A0780090E378227961792C4800F0C6
:101DB00095FC280003F0BCF802AA03C202A803C8DD
:101DC0000022284B03F0CEF804000D0003F0A6F922
:101DD000019003F0BDF806000F002000290000224A
:101DE00080235B0303F080F904D832003B0003F04A
:101DF00021FA08E002A803C81B4B03F0B3F8320035
:101E00003B0003F0B4F90022184B03F0ABF803F0E9
:101E100085F90C9A0B9B0A2151430091020001990C
:101E2000134800F05BFC1348817B012901D1032199
:101E300000E0022181736946098A8181103001F036
:101E4000E2FC6846008A02F08EFE05B0F0BD00009C
:101E5000FB03000007B201000A000000780A04102A
:101E6000BC0A04100000F43F0000F4BF0000594019
:101E7000000B0410680E0020F1B592B0A0200B906A
:101E8000B427B64C8D20800020180F90FC20400015
:101E900020180E90E620400020180D90C820400029
:101EA00020180C90A4208000201801909920800018
:101EB0002018009012A801780020A94D0A00052AD8
:101EC00045D801A39B5C9F44080416843062042615
:101ED00046E0C820C0000B90FA27FF0005263FE02F
:101EE00000260022002103F028FA010000D18FE033
:101EF000AE73009800F0F2FB8DE0C827BF000B978F
:101F00000026FA2040000290029880B20090B3B2FE
:101F10003A000B9989B2A88901F0C6F8002800D1CF
:101F2000B0E00100AD2080002018A6E01321A889B0
:101F300001F08CF8002803D0010020005C309CE008
:101F40002000883000F0CAFB00F0A8F89FE00029CC
:101F500006D00229C5D003D30429D5D060D396E09A
:101F6000062110A800F012F900200A900990012023
:101F70000890002007900120069000200590049012
:101F8000039002900720019000970B9B01220221F1
:101F9000002003F0D6F9002806D001008A20400076
:101FA000201800F09BFB05E0AE73AC204000201829
:101FB00000F094FB6B4B0F220321002003F0F6F995
:101FC000002804D001000C9800F088FB02E00D9876
:101FD00000F084FB10AA0121012003F0AEF90028D3
:101FE00049D10F9800F07AFB2800103001F00BFC6B
:101FF00012A80078012801D15B4904E012A80078FA
:10200000002844D159492800103001F0D9FB3EE0A6
:10201000019800F063FB2800103001F0F4FB36E07B
:10202000062102A800F0B2F800220021002003F0EF
:1020300084F9002805D0AE730100009800F04EFB33
:1020400002E0019800F04AFB464B0F2203210020DA
:1020500003F0ACF9002804D001000C9800F03EFB1E
:1020600002E00D9800F03AFB02AA0121012003F0E2
:1020700064F9002804D001000E9800F02FFB06E060
:102080000F9802E0BE208000201800F027FB13B05C
:10209000F0BD80B5012002F031FC01BD80B501200A
:1020A00002F036FC01BD000080B500BF33A000F097
:1020B00015FB00214020FFF7C4FB80B50220FFF78D
:1020C000DBFE00212648817327E002090007000F8C
:1020D0000A2A01DB373200E030320A700A2801DBBD
:1020E000373000E0303048707047E42008700C2032
:1020F000487002201070704780B500218020FFF7E3
:10210000A0FB80B58020C001194A1168014311600D
:10211000116808400090009809E0164803F075F92E
:10212000134A106814490140116001BD80B511487F
:1021300003F06BF901BD80B50948807B002802D00F
:10214000052808D101E0FFF7DCFF0220FFF794FE2D
:102150000120FFF791FE01BD00000000700B04108C
:10216000680E00204C020020905F0100A0BB0D0013
:1021700054004048E00E0020FFBFFFFF4164765F3F
:1021800043616E63656C5F5265710A00002200BF97
:10219000094202D0491E4254FCD1704770B4103A33
:1021A00003D378C9103A78C0FBD2530701D318C9BA
:1021B00018C001D508C908C0D20704D30B88038012
:1021C000891C801C002A01D50B78037070BC7047F5
:1021D0008B0701D18307E1D0124205D00B78491C4F
:1021E0000370401C521EF9D1704783008500070020
:1021F00007008300850005000700030003000F00AF
:102200000500820081000500F0B597B00546C07A50
:102210001224802800D95AE2298C172900D256E2CC
:10222000F948821D914200D951E2298A172900D22A
:102230004DE2814200D94AE2A87E002800D146E260
:1022400000F04FFD00280BD0E87E002800D13EE2D0
:10225000802800D93BE2287F401E0E2800D936E2B4
:10226000EA4C34222046294603F0DAF8E848149074
:102270005320C043169000F08FFC012804D0E07A70
:10228000002801D1149811E02546169C243400F052
:1022900083FCE97A6143DE4A50431018441800F089
:1022A0007BFCE97A4143DB48484320181630149000
:1022B00000F072FC012811D1169B18464C30D34C0B
:1022C0002189414318463030A27A424350181946BA
:1022D0003431227B4A438018099002E000200990A3
:1022E000FC4CE089119000F04BFC012801D000F07B
:1022F0000EFE00F049FC01280AD1169C243400F09F
:102300004BFC6043F34CE17A41430839039101E00F
:1023100000200390F0484C30139000F0F8FD0128A5
:1023200015D000F02DFC012811D02920205C0028B8
:102330000DD12520205C002809D12620205C002812
:1023400002D0E5484C3001E0169810301390E24876
:102350006C30129000F0DBFD012815D000F010FC6D
:10236000012811D02920205C00280DD12520205CD7
:10237000002809D12620205C002802D0D6486C30E5
:1023800001E016982830129000F0C1FD1090A07E58
:102390000090E07F0F9000F0FFFB0790E07F01903E
:1023A00000F0B3FC0890E07F029000F039FC0025BB
:1023B00000F0EEFB01282846159549D1607F0A28D8
:1023C00000D30A20169D24354543C03D002600F069
:1023D00074FC01280E961BD100F0DEFB012802D010
:1023E0001698403001E016983430BB49E031A27FA6
:1023F0004A43101816994C31E27F9140461800F07C
:10240000CBFB012804D116983C30E17A4143761881
:10241000AF1900F066FC054600F04FFC06462E4062
:1024200000F0BAFB304001280E9808D1E07E401E33
:1024300003210143A07FB0224243D043401A3C18FD
:1024400000F065FD6043A34CA34908183030159D8A
:10245000069000F0A1FB0128284608D103F058F8A7
:102460000128284603D12220205C16994843059074
:1024700000F023FC0128284620D19748D430A17EC3
:10248000414316983430E27A42435518002600F052
:1024900028FC012810D100F07FFB01280CD1169AEE
:1024A00010464430217F414310464C30E27E424387
:1024B00050188438A67E4643A819159D0E9003F047
:1024C00029F80128284631D100F066FB012802D006
:1024D000169E483604E016984C30E67A46430C3E89
:1024E0002327E05D00250028284605D000F054FB96
:1024F000E05D40420321884380192426A15D169A9D
:1025000050324A43871800F043FB01280CD100F0F9
:10251000FEFC012808D100F0D0FB012804D1A55D04
:10252000002D01D0169D3C357819159D0D9000F0B9
:1025300033FB0128294609D102F0EEFF0128294684
:1025400004D116983430E17A414314390C9100F0EB
:1025500023FB0128294608D102F0E0FF0128294683
:1025600003D116983830E17A41430B912620215C43
:102570002520265C72182920205C0492002A14D0A1
:1025800002462820235C169D28464C305843F838D4
:1025900048432723E35C2C4640345C434E4B1B19D5
:1025A0004C4C483373431D181046159500280A906B
:1025B0000CD002462A20205C474F3B46B0334343B1
:1025C0002546C8375743FB18483B03E02A20205CC8
:1025D00000232546039A28242C5D614309182724EB
:1025E0002C5D66433418601816D0169D2E4638367A
:1025F00066432C4620344C43A1192C4648344443AE
:102600000E19143E09E0C046FA030000DC0D00205C
:1026100020FCFFFF70FDFFFF0026079D149809991D
:102620000818169F39463031119C614340188018B4
:1026300013994018129941184C373C460F9A944010
:102640000919109A012A06D1234C009A54436118A3
:102650004524A40009191F4C089A012D02D1019D9F
:10266000AF40C919049D012A05D11698001D029A90
:102670009040411868390698059A081880180E99F4
:1026800040180D9940180C9940180B9940180A9958
:10269000CD4202D016990818443015994018C01838
:1026A0008019616840180321C943E28DD21C0A4099
:1026B000A38DDB1C0B409A18238EDB1C0B40D1181A
:1026C000401A03D402F02CFF002400E087242046A7
:1026D00017B0F0BDDC0D002090FEFFFF0EB4C0B5BA
:1026E000020003A801900020009001AB01210448E2
:1026F00078440C3002F0D0FF029906B0084700BFC2
:10270000513D020081B0644A01E081B0634A116822
:1027100001431160116808400090009801B07047B3
:102720007CB503F079FF00F073F800F097F808200B
:10273000FFF7E8FF0420FFF7E5FF00F0F1FC00BF22
:1027400060A000680090564E706C0124E44301259F
:10275000284008D1706A28437062706A2040706215
:102760000120FFF7D2FFC020C0050090684603F0AB
:1027700065FF6A460020002103C2706C284008D122
:10278000706A05437562706A044074620120FFF745
:10279000BCFF444800681028FBD36846A0214900CC
:1027A000018000218170019100F017FD3E4C3F48EF
:1027B00020612000103004F0F1F8002801D000F072
:1027C00060F88020C001B16B0143B163B16B01407F
:1027D00000910099B1690843B061B169344808407B
:1027E000B0613068C005FCD53248206005206060CB
:1027F0003148E060A060200002F0DCFD002801D03C
:1028000000F03FF8002004F03BF904F0E9F9FCE7A0
:1028100080B588B0182102A8FFF7B8FC6A460020EE
:10282000002103C203200290802040020390102068
:10283000059002A804F0C0FA002801D000F021F8A9
:1028400000200090202001900021684604F0DCFB6D
:10285000002801D000F015F809B000BD80B586B0A1
:1028600018216846FFF792FC02200090C0020590F4
:10287000684604F065FC002801D000F002F807B0BB
:1028800000BD72B6BFF34F8F0C490D480160BFF316
:102890004F8F00BFFDE700005000404860004048F7
:1028A0001C00404810180060E00E00200000304876
:1028B000FFBFFFFF00300040FF0F00000400FA05DB
:1028C0000CED00E00000000080B504F0CFFC80BDFE
:1028D00080B504F083FD80BDF8B506000F00002030
:1028E0003880154C200000F0CFFB010023D12000E0
:1028F00000F0CEFB0400114DF00705D521002800A3
:1029000000F0CAFB010016D1280000F0C9FB388096
:1029100021002800243000F0BFFB01000BD1210072
:102920002800483000F0B8FB010004D12100280045
:102930006C3000F0B1FBF2BDA8030020E8110410D8
:1029400080B5022801D9122080BD04F06BFD80BD46
:10295000FEB505000E00002010800299088008993D
:1029600008800520284032D03D4F380000F08CFB15
:1029700001002DD13B4C200000F092FB0199088012
:102980002000243000F08CFB02990880380000F011
:102990007FFB0700E80706D539002000483000F02B
:1029A0007BFB010014D12000483000F079FB08992E
:1029B0000880022E06D1390020006C3000F06CFB3C
:1029C000010005D129A20821002000F002F8002012
:1029D000FEBD70B504000D001600224804E070B57D
:1029E00004000D001600204800F05AFB33002A00B6
:1029F0002100401C80B200F001F870BDF3B581B039
:102A000017001C000025174E6946088024206843E3
:102A1000301800F045FB002804D0401C69460988A6
:102A2000884202D06D1C042DF0D3042D09D06846D5
:102A3000008924214D4375192B6A9988C219914246
:102A400001DA1220FEBD21003A009B681818FFF73A
:102A5000BFFB286A0178890700D547800020FEBDAA
:102A600064030020D4020020F802002053544D33A8
:102A70003257423030B58BB018AC24780A9417AC7A
:102A80002478099416AC2478089415AC247807941B
:102A900014AC247806946C464C256457059412AC0B
:102AA00024780494119C039410AC247802940FAC05
:102AB000247801940E9C009404F010FD0BB030BDFE
:102AC00080B504F09DFD02BD80B504F0B7FD02BDE8
:102AD00080B504F037FE02BD80B504F04BFE02BDA8
:102AE00080B504F069FE01BD80B504F089FE01BD2A
:102AF00080B504F0A7FE02BD80B504F0B7FE02BDAC
:102B000080B504F03FFF01BD80B504F061FF01BD59
:102B100080B504F085FF01BD80B504F088FF01BDDC
:102B200080B504F085FF02BD80B504F09BFF02BDB7
:102B300080B504F0C0FF02BD80B504F0CDFF02BD3A
:102B400080B504F0DDFF02BD80B505F00DF802BDD3
:102B500080B505F031F801BD80B505F033F802BD50
:102B600080B505F059F802BD80B505F077F801BDD4
:102B700080B505F087F801BD80B505F0EDF802BD20
:102B800080B505F0EBF802BD80B505F0E9F802BDAF
:102B900080B505F0E7F802BD80B505F0E5F802BDA7
:102BA00080B505F0E3F802BD80B505F0FBF802BD85
:102BB00080B505F01CF902BD80B505F02AF902BD0B
:102BC00080B505F038F902BD80B505F067F902BDA2
:102BD00080B505F09CF902BD80B505F0A6F902BDEF
:102BE00080B505F0B0F902BD80B505F0BAF902BDB7
:102BF00080B505F0C8F902BD80B505F0CCF902BD7D
:102C000080B505F0DAF902BD80B505F0DEF902BD48
:102C100080B505F0E9F902BD80B505F01FFA02BDE7
:102C200080B505F055FA02BD80B505F053FA02BD36
:102C300080B505F061FA01BD80B505F073FA01BDFC
:102C400080B505F0ADFA02BD80B505F0FFFA02BD12
:102C500080B505F003FB01BD1FB5089C0294079CDD
:102C60000194069C009405F029FB04B010BD1CB52E
:102C7000059C0194049C009405F05AFC16BD1CB5FB
:102C80006C46247D01946C46247C009405F064FD20
:102C900016BD80B505F0A8FD01BD80B505F02CFE80
:102CA00001BD80B505F03CFE02BD80B505F0D2FF48
:102CB00002BD80B506F00EF801BD80B506F05CF8E7
:102CC00002BD80B506F05AF801BD80B506F0D0F817
:102CD00002BD80B506F0EDF801BD80B506F0F5F84F
:102CE00001BD80B506F013F902BD80B506F012F9FA
:102CF00001BD80B506F032F901BD80B506F076F968
:102D000001BD80B506F080F901BD80B506F00AFA74
:102D100002BD80B506F008FA01BD80B506F02EFAB6
:102D200001BD80B506F046FA01BD80B506F058FA3F
:102D300001BD80B506F06CFA01BD80B506F080FAE1
:102D400002BD80B506F0BEFB01BD80B506F0DCFB20
:102D500001BD80B506F00CFC02BD80B506F010FC8C
:102D600001BD80B506F020FC01BD80B506F030FC49
:102D700001BD80B506F040FC02BD80B506F066FCE2
:102D800001BD80B506F0D8FD01BD1CB56C46247CA4
:102D9000009406F0DFFD13BD80B506F003FE01BD13
:102DA00080B506F017FE01BD80B506F087FE02BDB6
:102DB00080B506F0A1FE02BD80B506F0B9FE02BDE9
:102DC00080B506F0DFFE02BD80B506F009FF01BD4B
:102DD00080B506F03BFF01BD80B506F05FFF01BD89
:102DE0001CB5059C01946C46247C009406F0A2FF5F
:102DF00016BD80B507F098F801BD80B507F0E2F880
:102E000001BD80B507F036F901BD80B507F09EF928
:102E100001BD80B507F0E2F901BD80B507F0FAF910
:102E200001BD80B507F066FA02BD80B507F0AEFAC5
:102E300001BD80B507F006FB01BD80B507F00AFBB8
:102E400001BD80B507F00EFB01BD80B507F012FB98
:102E500001BD80B507F016FB01BD80B507F01AFB78
:102E600001BD80B507F056FB02BD80B507F066FBDB
:102E700001BD80B507F0BAFB01BD80B507F010FCBD
:102E800001BD80B507F0A0FC01BD1CB56C46A48A4D
:102E900001946C46248A009407F0BAFC13BD80B5F7
:102EA00007F084FD01BD80B507F03DFE01BD80B592
:102EB00007F040FE01BD80B507F052FE01BD80B5B0
:102EC00007F098FE02BD80B507F0D4FE02BD80B5C4
:102ED00007F0DAFE02BD80B507F006FF01BD80B540
:102EE00007F078FF01BD80B507F0AEFF01BD80B5EA
:102EF00007F0E6FF01BD80B508F022F802BD80B5FD
:102F000008F056F802BD80B508F066F801BD80B53E
:102F100008F022F902BD80B508F020F902BD80B5A5
:102F200008F032F902BD18B587B010AC24780694C9
:102F30000FAC247805940EAC247804940DAC24785E
:102F400003940CAC247802940BAC247801940AAC62
:102F50002478009408F0A4F908B010BD80B508F0FA
:102F6000CFF902BD80B508F0CDF902BD80B508F0FB
:102F70000BFA02BD80B508F0B7FA02BD80B508F0C3
:102F8000CDFA01BD80B508F0E1FA01BD80B508F0C9
:102F9000F7FA01BD80B508F00BFB02BD80B508F063
:102FA0002FFB01BD80B508F059FB01BD80B508F0CD
:102FB00075FB01BD80B508F0BBFB01BD80B508F015
:102FC000D7FB02BD80B508F0EFFB02BD80B508F06D
:102FD00019FC01BD80B508F04FFC01BD80B508F0BB
:102FE00029FD01BD80B508F03BFD01BD80B508F0AD
:102FF0005DFD01BD80B508F05DFD01BD80B508F047
:103000001BFE02BD80B508F06DFE02BD80B508F064
:1030100095FE02BD80B508F0C9FE01BD80B508F07F
:1030200015FF01BD80B508F075FF01BD80B508F042
:1030300081FF01BD80B508F09DFF01BD80B508F09E
:10304000BDFF01BD80B509F065F801BD80B509F08F
:1030500075F802BD80B509F075F802BD1FB508AC62
:10306000247802946C46247F01946C46247E00945C
:1030700009F070F804B010BD80B509F0AFF802BDDA
:1030800080B509F0B7F802BD80B509F0BBF802BD04
:1030900080B509F0BBF802BD80B509F0BBF802BDF0
:1030A00080B509F0BBF802BD1CB56C46248A0094BB
:1030B00009F0B8F816BD80B509F0C1F802BD80B5B9
:1030C00009F0E5F802BD80B509F0E5F802BD80B56C
:1030D00009F0F0F802BDE0B501A908700122084628
:1030E000114609F0FAF8002800D08CBD01A800783C
:1030F00009F011F98CBD1CB50446684609F034F995
:103100000020082806D06946095C225C0A43225444
:10311000401CF6E7204609F05FF91CBD7047704778
:10312000704780B509F068F980BD0300FFFFFFFF1D
:10313000FFFFFFFFFFFFFFFFFFFF01000000000098
:10314000FFFF01000000FFFF80B509F089F90028AA
:1031500004D104480068C07A002801D0002080BD56
:10316000032080BD140F0020010005D40121C006FA
:10317000C00E8140674801607047C16803229143D7
:1031800002220A43C260704709E0C0688007800FCE
:10319000022801D1012070470020704700BFC2689B
:1031A00003218A43C260704701617047006970471C
:1031B000826A5949114081627047816A4800C00F94
:1031C000704700697047826A8021890511438162D6
:1031D000704780687047C0687047F1B501274F4855
:1031E000C06B38434D49C8630846816B39438163DE
:1031F0001720FFF7B9FF1420FFF7B6FF00984068CB
:10320000002800D00120464D28700026000603D17A
:1032100000988078002813D04248C168C907FBD5C0
:1032200017210160C1683943C1604660C1683940F7
:10323000FCD02800103000F041FBE869286209E06A
:10324000C82040032862E8613748A86137482861F0
:103250003748686100984068002802D1A020C00566
:103260000DE000030A2109F01EF96860BC4C200043
:1032700000F094FA01006868884202D3200000F050
:103280008DFA68602E720098008829005831086114
:10329000A96900F099FBB34C0020207000212A009E
:1032A0005832183203C21D48016828005830816224
:1032B000002000212A005832203203C22A0028327E
:1032C00003C234216854B44AA969686809F042F914
:1032D000286328782074A66027736673E681280027
:1032E00058304672280058304681AE65EE65AB48CE
:1032F000A8646E6500F059FA6A68002312184B4101
:103300002800403000F07EFB0121280000F004FB83
:10331000F1BD000000E100E0FFFFFFBF10180060FA
:10332000300B002004100060C2F528008D5B000007
:10333000ECEB6501F8B586B0002568460570EFF343
:10334000108472B696480190407A00280BD000F0A5
:103350002CFA944EB26DF36D8B4204D801D38242A5
:1033600001D20198457284F310888E4F3800913055
:10337000029028E0491C1CE005690473816800295B
:1033800000D088472800F7D169460198406B00F0CB
:10339000B7FB019948636846007801280DD1EFF327
:1033A000108072B6029909784A1C029B5B789A4297
:1033B000E0D1029A117080F3108802984078059944
:1033C000411802984170029841780278501A02D24E
:1033D000802149004018002600282AD00590704816
:1033E0000190456B04950395002402E02E002D69A1
:1033F000641C002D0FD0287B0028F7D000F0D5F9F1
:1034000002000B0003CD083D801A99410029EDDB35
:1034100001DC0628EAD320000024002802D0346111
:10342000049500E0039404990198416303980028EF
:10343000A9E7387A00287AD0AD48006801242040F6
:1034400074D03E72AB48C178002904D1817800293C
:1034500001D0867057E03878002810D0380010303E
:1034600000F02CFAB96938005830006980B200F0D9
:10347000ABFA0021380000F04FFA34203C54EFF34F
:103480001080029072B69C480468386A01909B4D87
:103490002A00014638005830806A201A09F05AF88C
:1034A000390028310CC90021801859413A0058329E
:1034B000183203C23878002816D138005830806A94
:1034C000211A386B81420FD22A0001990020C04393
:1034D00009F040F8324D290018310CC9002180183C
:1034E00059412A00183203C238005830846238002B
:1034F0005830183003C83A00283203C2F8693862DD
:10350000029880F3108869463800583000F06AFB52
:103510003800403000F077F900F047F97A6800236E
:1035200012184B413800403000F06CFA15E0387842
:10353000002812D000F039F93A0028320CCAFA24D7
:1035400064030025A4185D418D4206D801D384424E
:1035500003D23800403000F048FA07B0F0BD000058
:10356000FFEFFFFFB40B00207CB505008A4806681A
:103570000C4C6946200000F087FA03C5083D5F4AFD
:10358000E1690098801B08F0E5FF020003CD0023ED
:10359000801A99417CBD000026030000EB3904101D
:1035A000880B0020300B002070B586B05148029087
:1035B000007802994978884235D1804E307A0028C7
:1035C00031D1032400F0F1F804AA03C203A800F0EB
:1035D000E7FB35006835310061316122B25C002AB9
:1035E00002D14A78002A01D0012802D18978002925
:1035F0001BD0B06DF16D0090019104A80CC8287F1C
:10360000002180185941B26E002312184B4100204E
:103610005232434100980199994224D301D89042F3
:1036200021D3022405E0002037E002281BD0012826
:1036300019D06D6A002D2FD0287B00282CD003CD07
:10364000083D0090019104A80CC8B06E00218018BC
:103650005941002252305141009A019B8B4204D8BB
:1036600001D3824201D2012017E0032C13D1286933
:10367000002810D13000403085420CD10121029841
:103680008170002000F08CFA844A1068894901405A
:103690001160032001E00224200006B070BDF8B5DF
:1036A0000D00110000246A461470002D00D0012581
:1036B000424A130060331D710D0000D001251D70BA
:1036C00011002831C0C9801B002180197941906503
:1036D000D1655C70DC70012098706946100058302C
:1036E00000F080FA012000F05BFA68460078F2BD35
:1036F00010100060C10B002010180060350600009B
:1037000070B50320C04383490A6802400A600A6812
:1037100010400860284A1068664901401160274D32
:1037200028005830002444724481EFF3108672B6AA
:1037300000F03BF8AA6DEB6D121A8B418420285CD7
:103740000021121A8B4186F31088002B04DC01DB68
:10375000012A01D2012070BD002B04DC01DB0F2AFD
:1037600001D2022070BD002070BDEFF3108072B650
:1037700051490A686749921C4A600A6803239A43C0
:10378000022313430B6080F31088704770470021B9
:103790009B480170704700001400006080B57A4AB1
:1037A0000649C96908F0D6FE02BD80B569460348DE
:1037B00000F06AF904BD000028180060300B0020FA
:1037C000F8B504000D00FFF7F0FF06000F00290D0B
:1037D00028030A22002308F0DEFE80197941020046
:1037E0000B00200000F00EF90400012000F0D8F9D1
:1037F000E0B2F2BD10B500F005F90400012000F0C0
:10380000CFF9E0B210BDF8B59E4C21680E0000253E
:1038100000230A0001E033003669002E07D08642FB
:10382000F9D137698E4201D13A0000E01F61694643
:103830000D7005732068904214D0100000F060F9FC
:1038400020606846007800280DD0EFF3108372B630
:103850006079411CA279914200D0401C607183F3D1
:103860001088F1BD2260F1BD18B5002000900098CD
:103870000A4802680F4911400160A04C21784A1C97
:1038800063789A4200D0491C21700121C2690A4321
:10389000C261C0690140009111BD00003018006094
:1038A000BC4882680121114381600021016070479A
:1038B00000000000FFFFFFBF1018006070B504009B
:1038C000B54D2800FFF785FC06002800FFF781FCB6
:1038D0008642F6D1002EF4D0B04A30125043F1B2F5
:1038E0005143090A401810304011E060266028005A
:1038F000FFF771FC06002800FFF76DFC8642F6D149
:10390000002EF4D0B111B148414380310812A060BB
:10391000666070BD0C000060F8B505000F00AC4C8F
:10392000607A7D214843C90008F0BAFD461CF6B212
:10393000A84AA9691B2008F00DFE2070607800F0ED
:103940002DF83D216854E078801900F027F83821DF
:1039500068542079801900F021F839216854607981
:1039600000F01CF83A216854A07900F017F83B21C8
:103970006854002F06D0E078801900F007F81B305B
:103980003C216854F1BD0000350600006821414328
:10399000090ADB225043000C0818704700B50200EA
:1039A0008D4840690021002308F034FE03220023E3
:1039B00008F030FE8022D204002312184B41D20EB0
:1039C00058010243100000BD80B5824A08F0C2FDD4
:1039D0008249884201DD080002E0102800DA102048
:1039E0000105090E7E48016001BD10B57A4C2078B2
:1039F000002801D0FFF754FF0120207210BD000005
:103A0000930B0020FEB5002769460F70017B00294B
:103A100001D00120FEBD0CC0083801210173194CF2
:103A200026680196050001E037003669002E08D0AF
:103A30000CCE083E03CD083D8B42F5D301D882421F
:103A4000F2D328000661002F01D1019000E0386117
:103A50000199814213D1694600F052F8206068460E
:103A6000007800280BD0EFF3108372B66079411C08
:103A7000A279914200D0401C607183F3108868469F
:103A80000078FEBDBC0B00207FB504000D00EFF3F5
:103A9000108672B6206F616F02AA03C2BE48FFF79C
:103AA00090FB03002B60BD4D02A803C8009001915C
:103AB0002A00E16980202058181A08F04BFD0021E7
:103AC000009A019B80185941A26FE36F99420FD869
:103AD00001D390420CD2009001912A00E1690020AC
:103AE000C04308F037FD0021009A019B801859411E
:103AF000A067E16786F3108804B070BDC10B002099
:103B0000F1B584B00F0004460020387000E024694D
:103B1000002C3BD0207B0028F9D0EFF310800090E0
:103B200072B6FFF742FE0CCC083C121A8B4102A879
:103B30000CC002A803C800291EDB01DC01281BD32E
:103B4000244A2548836902A803C8190008F002FD29
:103B50000600202E00D820268F4D2800FFF731FBCD
:103B600080190830E8622800FFF72DFB296B8020C0
:103B7000C0050843286301E001203870009880F3F5
:103B800010883878002801D0049800E0200005B0A3
:103B9000F0BD00000810006000100060F6BC0800D6
:103BA00010B59C490C009034002808D020780028DB
:103BB0000BD108004030FFF718FF012004E0080097
:103BC0004030FFF720FE0020207010BD530700009A
:103BD000C500002026030000300B0020FF0F00006E
:103BE00008180060F3B589B000210A98017009989F
:103BF000807A002800D1CDE0864C200028300CC807
:103C000060688018594106AA03C2EFF3108004903F
:103C100072B6FFF7CAFD02000B00099803C802AD97
:103C200003C502A803C80090019106A803C8C826CE
:103C3000B602002736184F4100980199B9420FD3B8
:103C400001D8B0420CD306A803C8B92676000027D5
:103C500036184F419F4201D802D3964200D396E0D6
:103C6000012600200A32434102A803C800254C382F
:103C7000A9418B4201D802D3824200D383E0099844
:103C8000027A02A803C805003C20205C0999097B40
:103C9000012905D1002A01D0382106E0392104E0AC
:103CA000002A01D03A2100E03B21615C00910190A3
:103CB00002A92000FFF7E8FE2D1A574AA169280043
:103CC00008F048FC0390C027FF050199A06E081872
:103CD000C830A84203981BD250490978411A00986D
:103CE0000D1A029840192C4948623800FFF74CFA27
:103CF0003800FFF753FA2848816AB007084326497D
:103D000088620846FFF75FFA00984449097812E094
:103D10003D21615C401A0099451A0298411938000A
:103D2000FFF742FA1C48FFF743FA3800FFF725FA7D
:103D300000983D21615C4018029A039952182100B5
:103D400068310A622A18411D8A420AD23800FFF7F8
:103D50001BFA3800FFF722FA0F48FFF729FA012172
:103D600007E00E4AE16908F0F5FB210068310877A9
:103D700000210A98017000210998817209994E72F8
:103D80000998C67203E0622165540A980670049887
:103D900080F310880BB0F0BD0018006035060000FD
:103DA00038B504001E4D2800FFF707FA002803D09D
:103DB000686A2060032032BDC025ED052800FFF7AA
:103DC000E4F9002805D02800FFF7F0F92060012071
:103DD00032BDE8688007800F032805D12800FFF76F
:103DE000E5F92060022032BD002032BD80B5FFF72A
:103DF0003BFDFDF717FD01BD81B00020009000984C
:103E0000084A10680121014311601068009001B058
:103E100070470000300B002026030000C500002082
:103E20000018006074000060026800210181418177
:103E3000818181731378FF2B05D0FE2B09D1038973
:103E40005B1C03810AE04168891A091F81810020F7
:103E50007047002B0DD143895B1C43815188CB1CDB
:103E600003211943491C5218531D41688B42E1D369
:103E7000EDE703207047F3B5079C089F210004D0AD
:103E800069464C80FE240C7000E0416884684568F7
:103E9000A54217D20D78FF2D14D0057B002D04D03C
:103EA000002505730D78002D0ED145684988CE1C7C
:103EB00003213143491C69184160A14202D20D78A7
:103EC000FF2DEFD10420F6BDFE2D01D00320F6BD5D
:103ED0006D462D79FF2D04D04D786E463679B5426A
:103EE000E3D14068001D106048881880002F01D081
:103EF000487838700020F6BD7FB515001C00099E7B
:103F0000002232800B9A01926A46128D009202AB17
:103F100003AAFFF7B0FF010013D1694609898D425A
:103F200001D306200DE0089A491B914200DA0A00ED
:103F3000200003994919FEF74BF968460089308043
:103F4000002004B070BDFEB5BD4D0D404B1B694651
:103F50000B700024070016000AE00422311901A8A2
:103F6000FEF736F9019A3919002008F06DFB241D7F
:103F7000AC42F2DB0020C043019068460278711920
:103F800001A8FEF725F9019A7919002008F05CFBD9
:103F9000F7BD38B544688568AC4202D22578FF2D5C
:103FA00001D1042032BD007B002801D1FE2D01D0BB
:103FB000052032BD6588A94201D3062032BD10001C
:103FC0001A00231D591808F0B5FB002801D0002065
:103FD000C04332BD7CB5079C0026069D2E8025007F
:103FE00005D06D466C80FE242C706C4600E0446861
:103FF00045688668B54202D22678FF2E01D104209A
:1040000076BD007B002801D1FE2E01D0052076BDB3
:104010006088814201D3062076BD461A9E4200DAAE
:10402000330010001A002B1D5918FEF7D1F86188D3
:1040300006980180002076BDF8B584B007000E0018
:104040001500B74C254203D108F074FB002820D09E
:1040500001A80C21FEF79AF8CF483818C00A029040
:10406000681E0443641C6003000E0390694601A8A7
:1040700008F070FB00240AE06010800F0119032093
:10408000814372583919002008F0DEFA241DAC4231
:10409000F2D305B0F0BD0121017000214180818083
:1040A0007047F1B588B00C0015001E00002000908C
:1040B000FF2229002000FEF76BF8FE2069460875F4
:1040C00007946846458206960E9D009C05AE19E051
:1040D0006846018A6888081A401E03240443641C49
:1040E000A4B268886946098A0A1A521E032111433C
:1040F000491C89B28F4242DB01200022B94228705C
:104100006A8046D06846418A0F1B3F1FBFB228789D
:10411000002826D0701C0390A888029004A8019063
:1041200000970798001D03190022FF210898FFF748
:10413000E3FE6946098AA98001000ED16846008A1B
:104140007080042205A907980019FEF741F87188CC
:10415000C91C032008432418C1E706990C8009B044
:10416000F0BDA888019004A800903B0007980219B0
:1041700069880898FFF72EFF0100A9D0EFE700211A
:104180002970C01968806846408A06990880002016
:10419000E5E76846418A06980180F8E7F8B5AE4C35
:1041A000A544AE4B0100142251435F1879890029C0
:1041B00001D1002040E004A900F013F9059D02A8F8
:1041C000FFF769FF8026360102A8009001AB32009C
:1041D00008A904A8FFF765FF0400042C06D0002CF2
:1041E0002AD168468188B142EED103E068468088D2
:1041F000002808D06846828808A92800FFF71CFF1D
:10420000AD19002CE0D008A80C21FDF7BFFF6248D3
:1042100028184003000E09900699491E701E084395
:10422000401C401B4003000E0A90694608A808F095
:1042300091FA3800FFF7F8FD89498D44F0BD000080
:10424000FCFF0000F8B5844CA544002269468A7141
:1042500000210023814A06000BE0B4680C2058437B
:10426000245C1420444310194089002800D0012107
:104270005B1C30798342F0DB002925D080221201BB
:10428000FF2108A808F0AEFA0025802424010DE0E3
:1042900002A8FFF700FF02A8009001ABE21B92B258
:1042A00008A8C11904A8FFF7FCFE6D1C30798542EF
:1042B0000CDAB0680C226A43011D8F5804A9805C97
:1042C00000F08FF80028E3D000201BE0220008A9AE
:1042D0003068FFF7B1FE0025604C370068468679EC
:1042E0000CE0B9680C206843095C14204143601855
:1042F000FFF79AFD010000D006006D1C3879854259
:10430000EFDB300056498D44F0BD944B99798142E2
:1043100001D102207047997C8142FAD00020704779
:10432000FF070000F8B54C4CA54404000E008022A5
:104330001201FF2108A808F055FA0025684604710B
:10434000802424011CE00C276F43B068C05D6A46DE
:104350001279904213D004A900F043F8B068C01954
:10436000476802A8FFF797FE02A8009001AB9B1CCC
:10437000E21B92B208A8C11904A8FFF792FE6D1CB7
:1043800030798542DFDB220008A93068FFF754FE50
:10439000002033498D44F0BD0000FCEF10B500242F
:1043A0006E490C20604309188A792C4B1420504325
:1043B00018180368002B10D1012A0EDC0B6803606B
:1043C0008A889A18426009890182FFF72DFD010051
:1043D00004D1641C012CE3DD01E0012010BD0020AC
:1043E00010BD10B50400022C01DB012010BD1B4ADA
:1043F00014235C4313191A684A605A688A600122C0
:104400000A7308700020487310BD7FB58B4E047886
:1044100014256C433419A47B002C01D00A2008E039
:1044200003940294099C01946C46248C0094FFF739
:1044300063FD04B070BD7CB59F4E047814256C43B9
:104440003419A47B002C01D00A2076BD0194069C6F
:104450000094FFF7BFFD76BDE0F7FFFFB80E002028
:1044600024080000FAB583B017000325791E03263F
:104470000E43761C0CE00B78FF2B18D0FE2B01D0DE
:10448000002B67D14A88D21C2A43521C89184160EC
:10449000846841684A1DA242EDD3874902781420FE
:1044A000424388184089002852D1022053E00290EC
:1044B000601A824A904200D310467F4C80B2B3B259
:1044C0006A46128D9A18121D904239DB6846007BAD
:1044D0000191FE216A461170694648706846008D58
:1044E00030184880009A0199002008F0ADF8049A2D
:1044F000B1B20198001DFFF726FD0B9A6846018DA9
:104500000198B6B28019001DFFF71DFD200008308C
:1045100002990A7814214A4380180188491C0180B5
:104520000298007814214843201881896A46128D28
:10453000BA18521E1543491B491F818100200AE009
:104540000298007814214843201840890028ACD0F4
:104550000B2000E0032005B0F0BD0000B8120410ED
:1045600010B504006168A06881421ED20878FF2857
:104570001BD0FE2817D1FF22D243002008F064F898
:104580004D48030008332178142251435A181188EA
:10459000491E1180227814214A4381184889401C01
:1045A0004881002010BD052010BD042010BD78B545
:1045B00085B005006946FFF7A8FE204C02281ED1F1
:1045C000142045436419256802A80C21FDF7DEFD7F
:1045D0003B4828184003000E03906168491E394883
:1045E0000843401C401B4003000E049001A902A890
:1045F00008F0B0F82000FFF717FC00201BE00128AE
:1046000018D100992800FFF78DFE060010D1002573
:104610000AE0009881680C206843095C142041433B
:104620006018FFF701FC6D1C009800798542F0DBF3
:10463000300000E0012006B070BD0000B80E002080
:104640001CB504006946FFF760FE022803D1200074
:10465000FFF7A4FD16BD012803D10098FFF7F2FD76
:1046600016BD012016BD38B5174800214156CCB201
:10467000114D14236343ED186B89002B03D0AB89D4
:104680002D8AAB4207D3641CE4B2022C00D1002473
:104690008C42EDD104E0631C59B2022903D101E040
:1046A0000024E44300230370200602D4E0B2FFF7A5
:1046B000C7FF002032BD0000B80E0020FFFF000041
:1046C0000000FCEFFF07000033000020F0B583B0CE
:1046D000044643480460204608F066F90546204633
:1046E00008F052F90646684600F00AFF0099091AD8
:1046F0004B0B3C490A681146D831002B02D110609F
:10470000012000E00020087037480068447B002149
:10471000FF2C0AD02C206043344A12681018827C87
:10472000002A02D0416AC068FFE70127002E05D0A9
:10473000002D03D100292A4E08D109E0002D284E72
:1047400006D02B4A914203D1002901D08847002787
:10475000306808F025F9002801D004251EE03068F3
:1047600008F008F9002801D0012517E0306808F0AA
:1047700005F9002801D0022510E0306808F018F98A
:10478000052500280AD1306808F016F9002805D15F
:10479000306808F0DBF800281FD000250120A84071
:1047A000144909680A6802430A60002008F064FBA3
:1047B00000F0A1FE204608F071FB0A480468607D05
:1047C000012808D1217C0F200840E268090908F07F
:1047D00027FD0020607503B0F0BD002FE8D1ECE7A5
:1047E000440F0020140F0020180F00201C0F002081
:1047F0003B2D0410500F0020BCB5574CA16900910F
:104800000840A06135E0521CD00025183B000B4049
:1048100028681840F7D02868074039406868084081
:1048200002D10020C04368606868084000F098F832
:1048300001006A680120884082436A606162EFF388
:10484000108172B6626A01209040C2432069104014
:1048500020610223D8002518083D286810402860F0
:104860005B1EF7D181F310883C48616A890040588B
:1048700080472369E0696769226AA1693B400B4070
:1048800001D00240C0D00021C9436162216A0140C9
:1048900014D102F0ABF9EFF3108572B62269E0692A
:1048A00061691140A2690A4004D1216A014001D125
:1048B00002F09DF985F3108808F0B3FC0098A06120
:1048C000B3BD38B51400EFF3108572B600F048F8A8
:1048D00081002248445085F3108831BD10B5EFF3B4
:1048E000108272B61C4B1C6904431C61C9005B1822
:1048F00019680843186082F3108810BDEFF3108325
:1049000072B61549CA691043C86183F310887047AD
:10491000F8B5114D696A00910022D243914201D14C
:10492000002701E001278F402E6A2862040003E07F
:104930002100380008F076FCE8692040F8D00098A3
:104940006862EFF3108172B6E869A043E86181F311
:1049500010882E62F1BD0000D40300205C0C002002
:104960000021020C120401D110210004020E1206D3
:1049700001D108310002020F120701D1091D000107
:104980001F22521A02A1000F085C101AC0B2704711
:104990000403020201010101000000000000000008
:1049A00010B5FFF7FBFC424C211D0020FFF719FD5D
:1049B000210014310120FFF714FD201D206010BDDF
:1049C0003EB53B4D022802D12C00143400E02C1DD2
:1049D0002C6001936B461B8B00930B0001002000A1
:1049E000FFF740FD002805D0022801D1002000E09B
:1049F0000120C0433EBDF8B584B00E0019002C4C18
:104A0000022E03D125001435012301E0251D0023CA
:104A10000700256028466D466A8103910A9D022F92
:104A200008D102A900912B00039A69464989FFF732
:104A300002FD0FE0002F03D101001800FFF7D1FCA9
:104A400002A801900095039B6846428931002068C6
:104A5000FFF7DBFC010001D1002005E0042801D1B3
:104A6000022000E00120C04305B0F0BD10B51400E5
:104A700023000A0001000E480068FFF78AFA0028A8
:104A800004D001D5200010BD0220C04310BD80B568
:104A9000022807D1064908681431884207D0FFF779
:104AA0005FFD01BD032802D10020FFF780FD01BD9D
:104AB000440E00200121FFE71948016000207047E3
:104AC0000120C04316490968012900D10020704720
:104AD0000020EFF3108172B6114A1368012B02D047
:104AE0000120C04301E00323136081F31088704765
:104AF0000020EFF3108172B6094A1368032B02D02D
:104B00000120C04301E00123136081F31088704746
:104B100080B50A00034908F0D1FB02BD0000000087
:104B2000D0030020D01204100249096848820020F6
:104B30007047C046140F002080B50023FA2292006F
:104B400000210120FEF7B7FA0100234802D0FDF74B
:104B5000C5FD02E05C30FDF7C1FD20482049016140
:104B60002049816201BD20490880704770B5060068
:104B70001D4C6680231D01220021FEF7A8FA0100CA
:104B8000C64D03D02800FDF7A9FD03E028003C3006
:104B9000FDF7A4FD01213000FEF795FA002805D0AD
:104BA000010028007030FDF799FD03E02800B830BF
:104BB000FDF794FD13212088FEF748FA002805D060
:104BC00001002800F830FDF789FD70BD92204000FB
:104BD0002818FDF783FD70BDA40E0410680D002099
:104BE000A54E0410B54E041064020020F7B594B031
:104BF00000200390BC48049034E0BC48FDF76EFDF3
:104C00002AE06846012140562A00010024D4C5B29A
:104C1000B74C501C207234206072D2B208A9200018
:104C20000A30FDF7D5FA2379200008300290FFB250
:104C3000019700951A0014A80188608808F066FDA5
:104C40000028DAD001952179009114A90B88628897
:104C50000100A848FDF742FD039906980818401C7A
:104C600080B20390039816A90978884200DB0FE10F
:104C70001599085C06901598411C0398085C342827
:104C8000EAD10699491E1598821C03981218002330
:104C9000DB436846037018466B4658700025107851
:104CA0004006400E924B1B799842D5D1501C6B4662
:104CB000D970079212E0277002206070029D09E00F
:104CC000FF2E07D0102020708948C2886270100A19
:104CD000A0700D000198401C059940180190AF1C70
:104CE000019907986A46D2788018401E814288D27E
:104CF00008780109491C059101994E7869460A789E
:104D0000521C0A707A4949798E4202D0FF2EE1D1B5
:104D100005E0FF2E03D06B466A4619785170FFB24A
:104D20000297E91CC9B208AA541900270028C7D065
:104D300010283DD0202806D03F2814D0B0284ED0CF
:104D4000BF281ED0B7E70198C27804984271FF2EA1
:104D50002BD0112020700198807860700198C07865
:104D6000A0700D0021E001988178C078000208430E
:104D7000049908800198017904988170FF2E10D160
:104D800013E00C215C48FDF701FA059A521E0C2A2B
:104D900000D30B220198811C5748FDF719FAFF2E0A
:104DA00003D00F2020706770029DFDF7A5F991E7F1
:104DB000FF2E8FD00198867800AA921CA11C30008B
:104DC000FDF793F96846807800010E2101432170B8
:104DD00066700806000F2D18AD1CEDB27AE7019839
:104DE0008178684681700198C17A007B000208438F
:104DF0000CD108F0FFFD00BF45A0FDF76FFC3F4858
:104E0000FEF701FD3E48FEF7FEFC37E0012813D116
:104E1000002008F0EBFD00BF40A0FDF75FFC394F1C
:104E200038002030FEF7EFFC38000830FEF7EBFCCE
:104E30003549380008301FE0022826D139A0FDF797
:104E40004DFC2F48FEF7DFFC2C48FEF7DCFC2D481C
:104E50000078002806D108F0C9FD2A480121017018
:104E60000A2108E0012809D1002008F0C3FD2548E7
:104E70000770FA2189002030FEF7A2FCFF2EADD08A
:104E8000012020706846807817E72770062014E715
:104E90001E48FDF723FC17B0F0BD0000540F0410AE
:104EA0007047000080B5002008F0A4FD18A0FDF7B1
:104EB00015FC01BD10B5134C2078002805D108F071
:104EC00095FD012020700A2108E001280AD1002068
:104ED00008F090FD00202070FA2189002000203089
:104EE000FEF76EFC10BD0000BA0200205011041045
:104EF00064020020C4100410AA020020880D0020C3
:104F0000700D0020680D002060EA00009C10041065
:104F10004C4544204F46460A000000004C454420C2
:104F20004F4E0A004C454420424C494E4B0A00006B
:104F3000010042221201D21E004207D002D4521EAA
:104F40000018FCD5C10A40051205891870470000F9
:104F50000100EED54042F446FFF7EBFF0122D207F5
:104F600011436047F0B50E005E400125ED072E406D
:104F7000B446AE0ADF184C18F44208D2F7420ED2FB
:104F8000640D01D07F0D12D100206146F0BD05D126
:104F9000F74201D87F0D05D10020C143F0BDFBD100
:104FA000640DF9D00020C143490549088FE0E41998
:104FB000C902DB0229432B43DB0A460DC002314301
:104FC0008E4630B487B295B27D432E0CADB2140C30
:104FD0007C43A419260C240425439CB27C43A419C9
:104FE000190C7943270CC919A4B20F043C43090CCE
:104FF000000C97B247432E0CBE193543ADB2170CC7
:105000004743360CBF19A6B2BF193E043543240CE2
:105010003E0C36199FB24743BF19BCB23E0C8919EA
:105020001F0C47437F183E043443390C704680B24E
:1050300097B247432E0CBE193543ADB2170C474308
:10504000360CBF19A6B2BF193E043543240C3E0CE2
:1050500036199FB24743BF19BCB23E0C89191F0CC9
:1050600047437F183E043443390C77463F0C90B2D7
:1050700078432E0C80190604ADB22E43050CA0B265
:105080002D18120C7A435019020C80B2240CA4186B
:105090009AB27A43121914042043120C89181B0C7B
:1050A0007B43C91830BCEF0A394203D1B6194041DD
:1050B0004941641E6F12BF0DE41B0BDBFF19BC429C
:1050C00011DA240500274208AE4178416141664665
:1050D0003143F0BD641C05D1401C6141CF0201D3B6
:1050E0004908F4E750E75DE730B4012464054D005A
:1050F000EC420BD85D00EC4208D80C001C43640065
:105100000443144304D28B4200D1824230BC704726
:10511000FCD09942FAD19042F8E7FEE7F4464A18EB
:1051200005D200F00FF801D580174008604700F065
:1051300009F80121C907884200D9080040426047A8
:105140004A1812D2400DC90208430121C907084379
:10515000520D40210901521A521C06D452421F32EC
:1051600001D4D0407047C017704700207047F0B49A
:105170000125ED070F005F404FD48B4200D18242E2
:1051800005D98446100062468C4619006346DF1834
:105190004C18640D7F0D3AD0661C760537D0E61B9F
:1051A000352E34DCDB022B43DB0A0C0DC90229430C
:1051B000C912202E0DDB1700203E06D01F00F7413C
:1051C000F3405F400026012A7741C01871410DD29B
:1051D00017E01700F741F2405740F3415A40B340FF
:1051E000F3405A400026801859410AD3A21C5205A8
:1051F0000FD0C207012F724117004008CB07184398
:105200004908641C24054208AF4170416141F0BC6B
:105210007047641C21050020F9E76B4010E06B40EB
:10522000ABE7F742F3D1E943F1E72442EFD10020A5
:105230000021ECE7F0B40125ED070F005F40EED44C
:105240000C00871A9C4105D2C01BA141D2196341B1
:1052500069406B40AE0ADF184C18F442E1D2640D8D
:105260007F0DE2D0E61B362ED1DCDB022B43DB0ABE
:10527000A4460C0DC9022943C90A012E28DC04D119
:10528000D6075208DF073A435B08EF0A764290419F
:10529000994114D039423BD1B61940414941761C5D
:1052A000394204D1761C001849413942FAD0B94339
:1052B0006746B74208D9A41B24052143A7E700424B
:1052C000EAD13642E8D1A2E7E40AE10700209EE7EE
:1052D000202E0BDD203E1F00F340F7415F40012AE6
:1052E000002257417E42984191410BE01700F7415F
:1052F000F2405740F3415A40B340F3405A407E4297
:10530000904199410A0303D2641EB61940414941B4
:105310000027641E24054208AE4178416141F0BC7B
:105320007047FEE7C3788278417800781B021A4301
:105330000902120408431043704780B5FDF7C4FB0F
:1053400080BDF0B593B01F4615460E4612901C9CCA
:1053500008461146224608F039FC002824D122983C
:105360000D901FAB0DCB11901E980F901D980E90B5
:105370001B980C901A9919981097189F08920993E6
:105380000D9A0A920097019002910C980390049450
:105390000E9805900F980690119807901298314634
:1053A0002A46109BFDF766FB13B0F0BD80B5FDF7F4
:1053B00087FB80BD70B5040001D1012070BD20685D
:1053C000144901601449016061684160A16881600D
:1053D00008F010FC072506002068C16829400AD0A3
:1053E00008F008FC801B3128F6D32068C0682840EC
:1053F000F2D0032070BDE2680169914201D00261E0
:1054000001E006490160002070BD044900680160A8
:1054100000207047CCCC000055550000AAAA00001F
:1054200080B508F0EDFB01BD80B50B0011001A003E
:10543000FCF7AEFE01BD80B507F07CF902BD7FB57B
:1054400004000D001600684608F040FC684601782C
:10545000217041782970807830707FBD80B5FFF76A
:1054600057FB02BD80B507F029FF02BD80B508F0EB
:105470007DFC01BD80B508F0BDFC02BD80B508F023
:10548000DBFC02BD80B508F00BFE02BD80B508F064
:1054900060FE01BD80B508F064FE01BD80B508F076
:1054A00071FE02BD80B508F08BFE02BD80B508F02C
:1054B000A9FE02BD80B508F0A7FE02BD80B508F0C8
:1054C000A5FE01BD80B501F015FA02BD80B508F05A
:1054D00026FC02BD80B5FEF768F904BD80B5FEF775
:1054E00089F902BD80B5FEF78EF901BD80B5FEF7E2
:1054F000D6F8C0B202BD80B5FEF702F9C0B202BD57
:1055000080B5FEF731F804BD80B5FEF72EF901BD78
:10551000002070470020704700207047002070472F
:10552000F0B597B00126B104544812910160BFF361
:105530004F8FBFF36F8F07F0EFF9FFF7DCFF002409
:10554000E04307F0D4F9FDF71BFB1190FDF71CFBBE
:105550001090FDF7DCFC1390FDF7D7FB0F90FDF7E3
:105560005FFBFDF715FB0E90FFF7D2FF0790FDF7ED
:10557000A4FB0D90FDF7B5FB0C90FFF7CBFF0B9054
:10558000FFF7CAFF0A90FDF707FB0990FFF7C6FF78
:10559000089008F079FE3621304608F07BFE384945
:1055A000C97A34228154374D2860047028684470C9
:1055B000286884702868E121C1700520C00129682D
:1055C00088803020088516AF15A914AA3846FFF741
:1055D00036FF149800023978090101431598000339
:1055E0000843001D296848851821304608F052FEFE
:1055F00025490860047508F057FE0898C0B209995B
:10560000CCB20A99C9B20B9AD2B20C9BDBB20D9EF6
:10561000F6B20E9FFFB20097019602930392049197
:10562000059406901198C0B21099CEB20F99CBB2E2
:105630003146139AFDF777FCFDF7EEFA012C01D104
:10564000FDF7AEFA08F03AFE28682C21405CC0074E
:105650000FD1012C07D10798C0B2FDF7F1FAFDF781
:10566000D9FCFDF7DBFC304613993A46234608F097
:1056700081FE06481299016017B0F0BD80E100E09C
:10568000DC0D00204C0F0020680F002000E100E03E
:105690000100202008437047FDB5B2B03A9804914C
:1056A00002AA3B21505400200D9027A8401C3190A5
:1056B0000DE00498329A90470490002801D100F040
:1056C000D2FE0D98401C0D903398401C33903398B7
:1056D000017800290FD02529EBD1002007900890F0
:1056E00009900A900B900C90022501211491082139
:1056F0001291339C05E00D9800F0B7FE010014985C
:105700000843641C21782029F8D023290BD02B29A9
:1057100004D02D2904D0302908D00AE02843F0E72E
:1057200001000420ECE701000820E9E70100102057
:10573000E6E72A290FD134990A681168121D349BB3
:105740001A600F91002904D54A420F9201000420EB
:105750000843641C12E000210F91644909E00F9E88
:105760008E4205DAB3009B195B009A18303A0F920B
:10577000641C22781300303B0A2BF0D321782E29A9
:1057800003D00021C9430E9127E0641C21782A2907
:1057900008D134990A681168131D349A13600E9168
:1057A000641C1AE02D2902D12D23641C00E0002383
:1057B00000210E910CE0002B09D10E994B4EB14205
:1057C00005DA8E0071184900891830390E91641C71
:1057D0002278110030390A29EDD302A908872678EA
:1057E000310040487844FF30C01E08F023FE0028F6
:1057F00001D0641C00E0002602A83A21465402A908
:10580000682E04D1207868280AD1622005E06C2E29
:1058100006D120786C2803D171203A228854641C68
:1058200018A80690217868460170601C339068467D
:1058300004782100253933D01C3900D1CCE1091F6F
:10584000022900D8C8E1133901D100F027FD093938
:1058500000D1C1E1891E01D100F0CBFD491E01D16B
:1058600000F078FD491E022900D8B5E1091F01D1D9
:1058700000F070FD491F00D108E1491E01D100F080
:105880000DFD491E00D1F0E0C91E0ED0891E01D1C8
:1058900000F004FDC91E01D100F000FD00F0B4FDD0
:1058A00014980790252118A87CE1349800680468B2
:1058B000011D349801600594002C00D0C1E002A9BC
:1058C0003B20085C002800D1B5E00024E4430648F2
:1058D0007844143008F0B8FD201A01D000F0C3FD60
:1058E00000F0A0FD68BAFFFF9CBAFFFFCBCCCC0C48
:1058F00001236A4602A9280000F072FE002801D0A8
:1059000000F0B1FD641EF3D13295079C18AD002C58
:105910000FD0329E29780498B0470490002801D116
:1059200000F0A1FD0D98401C0D906D1C641EF1D17E
:1059300032963021684601700A9C002C0DDD329DA4
:1059400001236A4602A9280000F04AFE002801D07F
:1059500000F089FD641EF3D13295059D089C002C52
:105960000FD0329E29780498B0470490002801D1C6
:1059700000F079FD0D98401C0D906D1C641EF1D156
:1059800032963027684607700B9C002C0DDD329D47
:1059900001236A4602A9280000F022FE002801D057
:1059A00000F061FD641EF3D13295059908980D1839
:1059B000099C002C0FD0329E29780498B04704909F
:1059C000002801D100F04FFD0D98401C0D906D1C7A
:1059D000641EF1D13296684607700C9C002C0DDDD8
:1059E000329D01236A4602A9280000F0F9FD002833
:1059F00001D000F038FD641EF3D1329502A93820A1
:105A0000085C400700D462E62021684601700198D6
:105A1000002800DC5BE6019C329D01236A4602A956
:105A2000280000F0DDFD002801D000F01CFD641E00
:105A3000F3D132954BE61B4878446830059000F06E
:105A4000F1FC0E9D002D03D5200008F021FD09E09A
:105A50002A000021200008F023FD002801D0001BAF
:105A600000E02800089000F0DDFC3498006802682F
:105A7000011D349801600020C0430021104002AA9B
:105A800003C218A80590782100F0AFFC02A83B21C2
:105A9000415C002908D00024E4434B487844FF309F
:105AA000293017E7FCB8FFFF3A21405C62286AD032
:105AB000682819D06A2845D06C2806D071284FD0A4
:105AC000742831D07A2821D06FE0349801680868B2
:105AD0000A1D34990A6000287AD10024E4433B4827
