:020000041004E6
:100000000000012031AF051051AF051059AF0510A8
:1000100000000000000000000000000000000000E0
:1000200000000000000000000000000061AF0510AB
:10003000000000000000000063AF051065AF051070
:10004000B37304102F7804108F7F041037830410CB
:100050000000000000000000000000008F87041076
:100060006DAF0510178B04103B8C0410238D04100A
:10007000579304108BAF0510000000005395041037
:10008000E3960410A39B0410ADAF05100000000020
:10009000A5AF051000000000000000009DAF051096
:1000A000A79D0410B5AF05100FA004106BA5041098
:1000B00047A904100000000000000000000000003C
:1000C0006C0C0020FE3A0000000001060000460013
:1000D000F7000000FFFFFFFF6400011002020004B0
:1000E000F70001000001010202020200000100030A
:1000F000000400004572726F7220696E20424C4508
:100100005F535441434B5F496E697428292030780E
:10011000253032780D0A000020204661696C2020CD
:10012000203A206163695F68616C5F7365745F7416
:10013000785F706F7765725F6C6576656C20636F52
:100140006D6D616E642C20726573756C743A20302D
:1001500078253032580A0000202053756363657398
:10016000733A206163695F68616C5F7365745F7483
:10017000785F706F7765725F6C6576656C20636F12
:100180006D6D616E640A000020204661696C20205C
:10019000203A206163695F676174745F7372765F90
:1001A00070726F66696C655F696E697420636F6DEC
:1001B0006D616E642C20726573756C743A203078B2
:1001C000253032580A0000002020537563636573A0
:1001D000733A206163695F676174745F7372765FFD
:1001E00070726F66696C655F696E697420636F6DAC
:1001F0006D616E640A00000020204661696C202059
:10020000203A206163695F6761705F696E6974207D
:10021000636F6D6D616E642C20726573756C743ADA
:10022000203078253032580A000000002020537515
:1002300063636573733A206163695F6761705F69C7
:100240006E697420636F6D6D616E640A000000005A
:1002500020205374617469632052616E646F6D2055
:10026000426C7565746F6F74682041646472657365
:10027000733A20253032783A253032783A253032B8
:10028000783A253032783A253032783A253032784B
:100290000A00000020204661696C2020203A204797
:1002A00061705F70726F66696C655F7365745F64BF
:1002B00065765F6E616D65202D20446576696365A6
:1002C000204E616D652C20726573756C743A203018
:1002D00078253032580A0000202053756363657317
:1002E000733A204761705F70726F66696C655F7307
:1002F00065745F6465765F6E616D65202D20446571
:1003000076696365204E616D650A000020204661B4
:10031000696C2020203A204761705F70726F6669B7
:100320006C655F7365745F617070656172616E6347
:1003300065202D20417070656172616E63652C20AF
:10034000726573756C743A203078253032580A0023
:100350002020537563636573733A204761705F7043
:10036000726F66696C655F7365745F6170706561FB
:1003700072616E6365202D20417070656172616EDF
:1003800063650A0020204661696C2020203A2061C4
:1003900063695F6761705F7365745F696F5F6361F5
:1003A000706162696C69747920636F6D6D616E64F0
:1003B0002C20726573756C743A2030782530325871
:1003C0000A0000002020537563636573733A20614F
:1003D00063695F6761705F7365745F696F5F6361B5
:1003E000706162696C69747920636F6D6D616E64B0
:1003F0000A00000020204661696C2020203A20611C
:1004000063695F6761705F7365745F73656375725D
:100410006974795F726571756972656D656E747303
:1004200020636F6D6D616E642C20726573756C74E2
:100430003A203078253032580A00000020205375C9
:1004400063636573733A206163695F6761705F73AB
:1004500065745F73656375726974795F72657175D0
:100460006972656D656E747320636F6D6D616E6426
:100470000A00000020204661696C2020203A20619B
:1004800063695F6761705F636F6E666967757265E8
:100490005F66696C7465725F6163636570745F61E8
:1004A0006E645F7265736F6C76696E675F6C69739B
:1004B0007420636F6D6D616E642C20726573756C52
:1004C000743A203078253032580A000020205375C5
:1004D00063636573733A206163695F6761705F632B
:1004E0006F6E6669677572655F66696C7465725F69
:1004F0006163636570745F616E645F7265736F6C76
:1005000076696E675F6C69737420636F6D6D616E81
:10051000640A000020204661696C2020203A206196
:1005200063695F6761705F7365745F6C655F657653
:10053000656E745F6D61736B20636F6D6D616E646A
:100540002C20726573756C743A20307825303258DF
:100550000A0000002020537563636573733A2061BD
:1005600063695F6761705F7365745F6C655F657613
:10057000656E745F6D61736B20636F6D6D616E642A
:100580000A0000003E3E3D3D204843495F44495338
:10059000434F4E4E454354494F4E5F434F4D504C91
:1005A0004554455F4556545F434F44450A0000009B
:1005B00020202020202D20436F6E6E656374696FAC
:1005C0006E2048616E646C653A20202030782530BA
:1005D00032580A20202020202D20526561736F6E32
:1005E0003A202020203078253032580A00000000C0
:1005F0003E3E3D3D204843495F4C455F434F4E4E94
:10060000454354494F4E5F5550444154455F434F15
:100610004D504C4554455F5355424556545F434FEA
:1006200044450A0020202020202D20436F6E6E6557
:100630006374696F6E20496E74657276616C3A20DE
:10064000202025642E25303264206D730A2020205E
:1006500020202D20436F6E6E656374696F6E206C71
:100660006174656E63793A2020202025640A202079
:100670002020202D205375706572766973696F6E26
:100680002054696D656F75743A2020202564206DB3
:10069000730A00004843495F4C455F504552494F3B
:1006A0004449435F4144564552544953494E475F7C
:1006B000524553504F4E53455F5245504F52540A86
:1006C0000000000020204661696C2020203A206153
:1006D00063695F6C326361705F636F6E6E656374D4
:1006E000696F6E5F706172616D657465725F757060
:1006F000646174655F7265737020636F6D6D616EA8
:10070000640A00002020537563636573733A2061A7
:1007100063695F6C326361705F636F6E6E65637493
:10072000696F6E5F706172616D657465725F75701F
:10073000646174655F7265737020636F6D6D616E67
:10074000640A00003E3E3D3D204143495F47415021
:100750005F50524F435F434F4D504C4554455F5699
:10076000534556545F434F44450A00002D2D204702
:1007700041505F47454E4552414C5F444953434FBA
:10078000564552595F50524F4320636F6D706C65F0
:100790007465640A000000003E3E3D3D204143492F
:1007A0005F4741505F4B455950524553535F4E4F41
:1007B00054494649434154494F4E5F565345565458
:1007C0005F434F44450A00003E3E3D3D20414349C2
:1007D0005F4741505F504153534B45595F5245511C
:1007E0005F56534556545F434F44450A000000008E
:1007F0003D3D3E3E206163695F6761705F7061737C
:10080000736B65795F72657370203A204661696C1D
:100810002C20726561736F6E3A2030782530325823
:100820000A0000003D3D3E3E206163695F676170E4
:100830005F706173736B65795F72657370203A20C6
:10084000537563636573730A000000003E3E3D3DCF
:10085000204143495F4741505F50414952494E470B
:100860005F434F4D504C4554455F56534556545F7A
:10087000434F44450A00000020202020202D205016
:10088000616972696E67204B4F0A20202020202D5D
:10089000205374617475733A203078253032580AC9
:1008A00020202020202D20526561736F6E3A203069
:1008B00078253032580A00003E3E3D3D206863698D
:1008C0005F6C655F636F6E6E656374696F6E5F63A7
:1008D0006F6D706C6574655F6576656E74202D2034
:1008E000436F6E6E656374696F6E2068616E646CD1
:1008F000653A203078253034580A00002020202026
:10090000202D20436F6E6E656374696F6E20657372
:100910007461626C697368656420776974682040EB
:100920003A253032783A253032783A253032783AE2
:10093000253032783A253032783A253032780A003C
:100940006163695F6761705F7365745F7363616E34
:100950005F636F6E66696775726174696F6E202D73
:10096000206661696C2C20726573756C743A203056
:1009700078253032580A00003D3D3E3E20616369D3
:100980005F6761705F7365745F7363616E5F636FF0
:100990006E66696775726174696F6E202D2053757C
:1009A00063636573730A00006163695F6761705F09
:1009B00073746172745F70726F63656475726520C1
:1009C0002D206661696C2C20726573756C743A20F9
:1009D0003078253032580A003D3D3E3E2061636943
:1009E0005F6761705F73746172745F70726F63656B
:1009F00064757265202D20537563636573730A00F7
:100A00006163695F6761705F7465726D696E61745F
:100A1000655F6761705F70726F63202D206661692A
:100A20006C2C20726573756C743A203078253032E6
:100A3000580A00003D3D3E3E206163695F6761707A
:100A40005F7465726D696E6174655F6761705F7018
:100A5000726F63202D20537563636573730A000002
:100A60006163695F6761705F6164645F6465766933
:100A70006365735F746F5F66696C7465725F6163F1
:100A8000636570745F616E645F7265736F6C7669C5
:100A90006E675F6C697374202D206661696C2C2011
:100AA000726573756C743A203078253032580A00BC
:100AB0003D3D3E3E206163695F6761705F616464D4
:100AC0005F646576696365735F746F5F66696C7494
:100AD00065725F6163636570745F616E645F7265A8
:100AE000736F6C76696E675F6C697374202D205329
:100AF0007563636573730A003D3D3E3E2061636923
:100B00005F6761705F7365745F636F6E6E6563745A
:100B1000696F6E5F636F6E66696775726174696F26
:100B20006E2053756363657373202C207265737533
:100B30006C743A203078253032780A003D3D3E3ED4
:100B4000206163695F6761705F7365745F636F6E77
:100B50006E656374696F6E5F636F6E6669677572E9
:100B60006174696F6E204661696C6564202C207227
:100B70006573756C743A203078253032780A00003D
:100B80003D3D3E3E206163695F6761705F737461E4
:100B900072745F70726F6365647572652028617529
:100BA000746F20636F6E6E656374696F6E29202D9C
:100BB00020537563636573730A0000002020503270
:100BC00050207365727665722C20646220616464C3
:100BD00072203078253032583A253032583A253054
:100BE00032583A253032583A253032583A25303288
:100BF000580A00003D3D3E3E206163695F676170B9
:100C00005F7365745F6164766572746973696E673A
:100C10005F636F6E66696775726174696F6E202DB0
:100C2000206661696C2C20726573756C743A203093
:100C300078253032580A00003D3D3E3E2053756312
:100C4000636573733A206163695F6761705F7365A1
:100C5000745F6164766572746973696E675F636FF0
:100C60006E66696775726174696F6E0A00000000D4
:100C70003D3D3E3E206863695F6C655F7365745FF0
:100C8000706572696F6469635F61647665727469C7
:100C900073696E675F706172616D65746572735FB1
:100CA0007632202D206661696C2C20726573756C1C
:100CB000743A203078253032580A00003D3D3E3EDF
:100CC00020537563636573733A206863695F6C656D
:100CD0005F7365745F706572696F6469635F616497
:100CE000766572746973696E675F706172616D6554
:100CF000746572735F76320A000000003D3D3E3E2F
:100D0000206863695F6C655F7365745F70657269A5
:100D10006F6469635F6164766572746973696E6735
:100D20005F656E61626C65202D206661696C2C20A8
:100D3000726573756C743A203078253032580A0029
:100D40003D3D3E3E20537563636573733A2068638F
:100D5000695F6C655F7365745F706572696F646904
:100D6000635F6164766572746973696E675F656EEF
:100D700061626C650A0000003D3D3E3E206863698B
:100D80005F6C655F7365745F657874656E646564D8
:100D90005F6164766572746973696E675F656E61C1
:100DA000626C65202D206661696C2C2072657375FC
:100DB0006C743A203078253032580A003D3D3E3E72
:100DC00020537563636573733A206863695F6C656C
:100DD0005F7365745F657874656E6465645F616494
:100DE000766572746973696E675F656E61626C6562
:100DF0000A0000006863695F6C655F726561645F2B
:100E000072656D6F74655F66656174757265732078
:100E10002D206661696C2C20726573756C743A20A4
:100E20003078253032580A003D3D3E3E20686369E7
:100E30005F6C655F726561645F72656D6F74655F3D
:100E40006665617475726573202D205375636365E3
:100E500073730A006863695F6C655F706572696FC0
:100E60006469635F6164766572746973696E675FF4
:100E70007365745F696E666F5F7472616E736665C9
:100E800072202D206661696C2C20726573756C74FC
:100E90003A203078253032580A0000003D3D3E3E71
:100EA000206863695F6C655F706572696F64696310
:100EB0005F6164766572746973696E675F73657488
:100EC0005F696E666F5F7472616E73666572202D06
:100ED00020537563636573730A0000003D3D3E3E19
:100EE000206C6C5F7365745F706572696F646963B1
:100EF0005F6164766572746973696E675F7375624A
:100F00006576656E745F646174615F707472202DC4
:100F1000206661696C2C20726573756C743A2030A0
:100F200078253032580A00003D3D3E3E205375631F
:100F3000636573733A206C6C5F7365745F70657280
:100F4000696F6469635F6164766572746973696E01
:100F5000675F7375626576656E745F646174615F07
:100F60007074720A0000000000000000020000001F
:100F700030000020000000000800000050030020A6
:100F80000000000001000000A40500200000FFFF99
:100F900000000000040000008C0F0410000000009E
:100FA000050000001C0C00200000000001000000F3
:100FB00016D0041001000000030000002C0C0020DB
:100FC00020000000FB349B5F8000008000100000C8
:100FD000052A00001000000001000000100400209D
:100FE000900F04100A000000FB349B5F800000801B
:100FF00000100000292B000010000000000000007D
:10100000000000009C0F041002000000FB349B5FF6
:1010100080000080001000002A2B0000100000005B
:1010200000000000000000000000000002000000BE
:10103000FB349B5F80000080001000003A2B000012
:10104000100000000000000000000000A80F0410C5
:1010500000F00B1000080000AA02000000F80B10BE
:10106000F807010000000000CAEBECEDEFF0F1F230
:10107000F3F4F5F6F7F8F9FAFAFCFDFDFEFEFFFFD2
:10108000000001020304050608000000686A6C7491
:101090007A4C00007072696E74665F733A20256E38
:1010A00020646973616C6C6F776564007072696E3F
:1010B00074663A2062616420256E20617267756DE6
:1010C000656E74007072696E74665F733A20626157
:1010D0006420257320617267756D656E7400000071
:1010E000000000006E616E004E414E00696E6600A9
:1010F000494E460030002E007363616E665F733A9E
:10110000206261642025632C2025732C206F7220BF
:10111000255B20617267756D656E7400686C747A0A
:101120004C00000063436E5B0000000000002115CE
:10113000110E0D0C0B0B0A0A090909090908080808
:10114000080808080707070707070707070707072B
:1011500007000000303132333435363738396162B8
:10116000636465666768696A6B6C6D6E6F707172D7
:10117000737475767778797A00000000FB349B5F92
:101180008000008000100000292B000010000000EB
:10119000FB349B5F8000008000100000052A0000E7
:1011A0001000000002000000030000000300000027
:1011B0000600000003000000030000003C000000E7
:1011C0007000000070000000D003000070000000FC
:1011D000C3010000CDC6051027BC041077BD041064
:1011E00037BE0410EFBD0410372704108F270410FA
:1011F000CF2A0410D72A0410DF2A0410E72A04108B
:10120000EF2A0410D5CE05107BC604109F2A0410C7
:10121000AF2A0410E7BE0410AF270410E52904101C
:101220004728041097B00410A727041015CB051009
:10123000DF3E0610CD3B0610DF400610F1420610DF
:10124000F142061007440610DF400610E145061083
:10125000E1450610E1450610E33F0610873B061006
:101260004B3B061007440610972704109F270410D5
:10127000854906108D49061089490610CF270410AC
:10128000D7270410DF270410E72704100F280410C5
:10129000F7270410FF27041007280410EF27041075
:1012A0004D490610172804101F2804102728041081
:1012B0002F280410BFF34F8F7E487F490860BFF38B
:1012C0004F8F00BFFDE7000078B595B0062106A856
:1012D00000F0B0FD0620694608730020C881774CF5
:1012E00008A82100342200F0ADFD08A800F0D2FDCE
:1012F000010005D02000343001F036F801F0E4F8A8
:101300001821002001F0FCF8002805D00100200081
:10131000583001F029F803E02000983001F024F85B
:1013200005A9891C012001F0EFF8002805D0010073
:101330002000C83001F018F804E084204000201894
:1013400001F012F80121002001F012F9002806D066
:1013500001009C204000201801F006F804E0B620AF
:101360004000201801F000F804A8009004AB9B1C7A
:1013700005AA0021062001F003F906AA03A980208E
:1013800001F090F906A801780291417801918178E5
:101390000091C37802794179C8204000201800F0FC
:1013A000E3FF00BF46A20921002001F02AF900282E
:1013B00006D00100EA204000201800F0D5FF04E02C
:1013C00086208000201800F0CFFF03AA921C022183
:1013D000002001F01CF9002806D0010093208000B5
:1013E000201800F0C1FF04E0A4208000201800F0C5
:1013F000BBFFAC4E01250120307001F09CFB0028A2
:1014000006D00100B1208000201800F0ADFF04E0FC
:10141000C1208000201800F0A7FF75700820F07030
:1014200010203071B570002002901020019008202B
:101430000090002300220121012001F080FB002800
:1014400006D00100CD208000201800F08DFF04E0C0
:10145000DF208000201800F087FFB07800280FD030
:10146000012001F0C8FB002806D00100ED2080001B
:10147000201800F079FF03E08B48201800F074FF7B
:10148000684600BF11A10CC90CC0684601F0C3FB3F
:10149000002805D001008548201800F065FF03E012
:1014A0008348201800F060FF0AA000F05DFF16B02E
:1014B00070BD00000400FA050CED00E0C00004104F
:1014C000703270436C69656E74000000FFFFFFFFAF
:1014D000C0FFFFFF3D3D3E3E20456E6420424C452F
:1014E0005F496E69742066756E6374696F6E0A0079
:1014F00080B5012101202CE080B5012001F09EFB88
:1015000001F09FFB01F0B0FB002801D1FFF7F0FFD5
:10151000012001F094FB01BD80B501F08DFC01BDFF
:1015200080B50021022014E080B502F062FD01BD0B
:1015300080B502E080B5FFF7F3FFFFF7D9FF01BDEB
:1015400080B502F089FDFFF7D3FFFFF7E9FF012126
:10155000042002F08BFE01BD80B500218020C00078
:10156000F7E718B58DB0534A0021012002F071FE53
:10157000514A0021022002F06CFE504A0021042052
:1015800002F067FE02F0DEFE02F066FF0021C943B2
:10159000884201D100F098FFFFF796FEFFF7A8FF01
:1015A000474A00218020C00002F053FE454A002136
:1015B0008020800002F04DFE02F066FFC823DB00B1
:1015C00000200A9009900120089000200790012037
:1015D000069000200590049003900290072001904F
:1015E000009300220021002003F008F90100364C8E
:1015F00003D0200000F0B8FE03E02000443000F0EB
:10160000B3FE8022520008200490042003900220A0
:101610000290182001900420009000231100002067
:1016200001F0D4FA002805D0010020007C3000F041
:101630009BFE03E02000C83000F096FE0021012050
:1016400001F0C0FA002806D00100842040002018D4
:1016500000F08AFE04E0A6204000201800F084FE7E
:1016600000200BA90870488008710BAA01210120F5
:1016700001F0A0FA002806D00100C2204000201886
:1016800000F072FE04E0E4204000201800F06CFE40
:101690000BAA0121002001F08DFA00F039FB0EB0F9
:1016A00010BD0000C80B00200C0400005404000012
:1016B00094040000F91404101915041029150410DD
:1016C000BDB10510CF1D0410F40B0410F0B585B0AA
:1016D00006003078042802D0822802D0F9E1F51CF7
:1016E00000E0351D71780027C54C052908D0102968
:1016F00000D1DDE13E2925D0FF2900D142E1E4E11E
:10170000307971790906090C0843BE4989898842F4
:1017100015D1BC48BC4981818773200000F024FEAC
:10172000317970790006000C0143B27920002C3029
:1017300000F01AFE082002F0A9FD00F0E9FA00F01E
:1017400097FAC6E1F178012900D1ADE0022900D174
:10175000CAE0032914D0042900D1D9E00A290CD009
:101760000C2900D18FE00D2900D1C3E0272900D139
:10177000E2E0282900D1EAE0292900D185E0FEE055
:1017800020006C3000F0F0FDF079317A0906090C88
:10179000084303F077F80022CF4B03F08DF80022C6
:1017A00080235B0303F04AF9F079317A21D80906E6
:1017B000090C0843F579317A0906090C0D4303F049
:1017C00061F80022C44B03F077F8009001912800E3
:1017D00003F058F80022C04B03F06EF803F048F90C
:1017E00003F060F802000B000098019903F0CCF9B7
:1017F0001EE00906090C0843F579317A0906090C3F
:101800000D4303F03FF80022B34B03F055F803F00B
:101810002FF903F047F800900191280003F032F807
:101820000022AE4B03F048F8009A019B03F049F9FF
:101830000022AB4B03F040F803F01AF9F27A317B47
:101840000906090C0A43737AB17A0906090C0B439D
:10185000F179357A2D062D0C29430A25554300953B
:1018600006001D00080003F00DF800229A4B03F05B
:1018700023F803F0FDF801002B0032002000A03017
:1018800000F072FD25E1012053E0F07F761CF17F2E
:10189000761E0906090C0843727FB17F0906090C00
:1018A0000A43F37E317F0BE0F07C317D0906090CA1
:1018B0000843727CB17C0906090C0A43F37B317C36
:1018C0000906090C0B437179B4792406240C2143D1
:1018D000039002920193300009300090337AF2793C
:1018E000307900F05BF9F4E0F31DB27931000E318C
:1018F000707B05E033000833F27931001D31307F11
:1019000000F0BBF9002802D0012000F067F9E0E008
:1019100074A000F029FD002476A5F01D015D2800CB
:1019200000F022FD641C072CF7DDAAA000F01CFDCE
:10193000082002F0ABFCCCE074797079B1794018E2
:101940008442F8DAE0B202F065FE641CF5E7882014
:101950004000201800F008FD340008340025F0791C
:101960008542E8DAA31D6279E178707902F0CEFE53
:10197000607906214843241824346D1CEFE700BF2A
:101980005EA0A4E0287869780906090C0843001FC6
:10199000D1D0801E00D17EE08F49401A65D0401E14
:1019A0004ED0401F35D0C01E48D0C91E401A77D136
:1019B0006E7BA87B0006000C0643EB7A287B0006B2
:1019C000000C03436A7AA87A0006000C0243E97906
:1019D000287A0006000C0143A878EF783F063F0CF8
:1019E0003843012704972D79039510250295019519
:1019F000009601F0C6F8002808D0A020400032E090
:101A000084050410C80B0020FFFF0000C020400028
:101A100029E0E0204000201800F0A6FCA87801286A
:101A200057D1E878002854D1F4204000201800F065
:101A30009BFC0021802002F019FC4AE0852011E087
:101A400091208000201800F08FFC8849AF488089E1
:101A500001F083F8002804D001009B2080002018AA
:101A600035E0A8208000201812E0B2208000201865
:101A700000F07AFC2979002906D06A79BD2080001F
:101A8000201800F071FC02E023A000F06DFC51A0D2
:101A900000F06AFC1DE0A97825A000F065FC12E0CA
:101AA000297868780006000C014300BF28A00EE0EA
:101AB000F17800BF2CA000F057FCF078042808DA79
:101AC000052003F0D9F8FFF7F5FB00BF2EA000F0CA
:101AD0004BFC05B0F0BD00000000F43F0000F4BF77
:101AE000000059404C455F46656174757265733AF4
:101AF0002000000030782530325820004843495FEC
:101B00004C455F4D4554415F4556543A2030782549
:101B10003032580A0000000020202020202D2050C4
:101B2000616972696E6720537563636573730A0038
:101B30004143495F48414C5F46575F4552524F52BF
:101B40005F5653455654203078253032580A0000ED
:101B50004843495F56454E444F525F4556543A20DC
:101B60003078253034580A004843495F4841524490
:101B7000574152455F4552524F525F4556542030AF
:101B800078253032580A00004843495F4556454E93
:101B9000543A203078253032580A00007FB50E00C4
:101BA000089C9E4D280000F0DFFB207802906078B2
:101BB0000190A0780090E378227961792800443080
:101BC00000F0D2FB5148868100218020800002F085
:101BD0004DFB7FBD0A000000FB0300007CB54B4EAF
:101BE000904C002802D0012805D00DE0C8218900C2
:101BF0000A0004250DE00025012000F098FF0100F7
:101C00002ED02000C03024E0002802D00128F3D0DC
:101C100073BD92B2019289B2009101230122002189
:101C2000012000F068FF002804D00100200000F02F
:101C30009BFB03E02000383000F096FB00230022DD
:101C40000121012000F06FFF002805D001002000D5
:101C5000683000F089FB73BDB5732000983002E056
:101C6000B5732000F43000F07FFB73BD07B20100B4
:101C700080B5012002F00AFB01BDF8B586B0002452
:101C8000224E6F4678730F0068460273059300205A
:101C900001256946497B8C4235DA395D0491391951
:101CA0004978FF2929D10499062926DD391989782F
:101CB000302922D13919C97800291ED13919097959
:101CC00002291AD139198979832916D16846007BEE
:101CD0003074062205993000113000F0CDF8F5730C
:101CE000707C0290B07C0190F07C0090337D727D1E
:101CF000B17D4D4800F038FB012004996418641C44
:101D0000A4B20100C5D007B0F0BD0000C80B002090
:101D10001FB5464B09220121012002F0C1FF01003D
:101D2000404C07D090204000201800F01DFB00F030
:101D3000CBFB04E0B8204000201800F015FBA020E9
:101D400001900090002301220121012000F0D3FE28
:101D5000002806D00100200000F006FB00F0B4FBD4
:101D600003E02000383000F0FFFA022002900190DA
:101D700032200090002328222821012000F0C5FEF7
:101D8000002806D10021DC204000201800F0ECFAE9
:101D900007E00100FE204000201800F0E5FA00F006
:101DA00093FB002300220121022000F0BCFE00284A
:101DB00007D001002000683000F0D6FA00F084FB64
:101DC0001FBD90208000201800F0CEFA1FBD38B54E
:101DD000082002F065FA124DA88900F0E7FE010024
:101DE000134C01D0200010E02000343000F0BCFA89
:101DF000082002F05FFA00220021A88900F0DEFE30
:101E0000002805D001002000603000F0ADFA31BD9F
:101E10002000A83000F0A8FA31BD0000B808041076
:101E2000C80B002040090410BC0B04100403002060
:101E3000F40D0410002200BF094202D0491E425492
:101E4000FCD1704770B4103A03D378C9103A78C007
:101E5000FBD2530701D318C918C001D508C908C05F
:101E6000D20704D30B880380891C801C002A01D56B
:101E70000B78037070BC70478B0701D18307E1D0EA
:101E8000124205D00B78491C0370401C521EF9D138
:101E900070474300F0B597B00546C07A12248028F9
:101EA00000D95AE2298C172900D256E2F948821D3E
:101EB000914200D951E2298A172900D24DE281428C
:101EC00000D94AE2A87E002800D146E200F0EFFCEB
:101ED00000280BD0E87E002800D13EE2802800D9FF
:101EE0003BE2287F401E0E2800D936E2EA4C34221D
:101EF0002046294602F0EAFEE84814905320C043E9
:101F0000169000F05CFC012804D0E07A002801D192
:101F1000149811E02546169C243400F050FCE97A10
:101F20006143DE4A50431018441800F048FCE97A37
:101F30004143DB48484320181630149000F03FFC22
:101F4000012811D1169B18464C30D34C21894143AE
:101F500018463030A27A4243501819463431227B59
:101F60004A438018099002E000200990FC4CE08967
:101F7000119002F01BFF012801D000F069FD02F072
:101F800017FF01280AD1169C243400F018FC604386
:101F9000F34CE17A41430839039101E000200390BA
:101FA000F0484C30139000F053FD012815D002F09A
:101FB000FDFE012811D02920205C00280DD125200C
:101FC000205C002809D12620205C002802D0E548AA
:101FD0004C3001E0169810301390E2486C301290AB
:101FE00000F036FD012815D002F0E0FE012811D0E6
:101FF0002920205C00280DD12520205C002809D153
:102000002620205C002802D0D6486C3001E01698CB
:102010002830129000F01CFD1090A07E0090E07F10
:102020000F9000F0CCFB0790E07F019002F0C2FE21
:102030000890E07F029002F0BFFE002500F0BBFB9D
:1020400001282846159549D1607F0A2800D30A2027
:10205000169D24354543C03D002600F00CFC0128A8
:102060000E961BD100F0ABFB012802D01698403031
:1020700001E016983430BB49E031A27F4A43101882
:1020800016994C31E27F9140461800F098FB0128E8
:1020900004D116983C30E17A41437618AF1900F02C
:1020A00006FC054600F0E7FB06462E4000F087FBE5
:1020B000304001280E9808D1E07E401E03210143E4
:1020C000A07FB0224243D043401A3C1800F0C0FC2D
:1020D0006043A34CA34908183030159D069000F0CA
:1020E0006EFB0128284608D102F068FE0128284628
:1020F00003D12220205C16994843059000F0BBFBD9
:102100000128284620D19748D430A17E4143169813
:102110003430E27A42435518002600F0C8FB01280B
:1021200010D100F04CFB01280CD1169A1046443017
:10213000217F414310464C30E27E424350188438A0
:10214000A67E4643A819159D0E9002F039FE01287F
:10215000284631D100F033FB012802D0169E4836C4
:1021600004E016984C30E67A46430C3E2327E05DA7
:1021700000250028284605D000F021FBE05D404204
:102180000321884380192426A15D169A50324A43C0
:10219000871800F010FB01280CD100F059FC012831
:1021A00008D100F068FB012804D1A55D002D01D005
:1021B000169D3C357819159D0D9000F000FB012807
:1021C000294609D102F0FEFD0128294604D11698BE
:1021D0003430E17A414314390C9100F0F0FA0128CF
:1021E000294608D102F0F0FD0128294603D11698AE
:1021F0003830E17A41430B912620215C2520265C72
:1022000072182920205C0492002A14D0024628204B
:10221000235C169D28464C305843F8384843272302
:10222000E35C2C4640345C434E4B1B194C4C48330A
:1022300073431D181046159500280A900CD00246CD
:102240002A20205C474F3B46B03343432546C837DE
:102250005743FB18483B03E02A20205C0023254617
:10226000039A28242C5D6143091827242C5D6643BA
:102270003418601816D0169D2E46383666432C4604
:1022800020344C43A1192C46483444430E19143EC3
:1022900009E0C046FA030000140B002020FCFFFFF9
:1022A00070FDFFFF0026079D149809990818169FD6
:1022B00039463031119C61434018801813994018F9
:1022C000129941184C373C460F9A94400919109ABC
:1022D000012A06D1234C009A544361184524A400D6
:1022E00009191F4C089A012D02D1019DAF40C9194F
:1022F000049D012A05D11698001D029A90404118AC
:1023000068390698059A081880180E9940180D9992
:1023100040180C9940180B9940180A99CD4202D0E8
:1023200016990818443015994018C018801961682A
:1023300040180321C943E28DD21C0A40A38DDB1C47
:102340000B409A18238EDB1C0B40D118401A03D483
:1023500002F03CFD002400E08724204617B0F0BDC9
:10236000140B002090FEFFFF0EB4C0B5020003A8BE
:1023700001900020009001AB0121044878440C300A
:1023800002F0E0FD029906B0084700BF7D17020089
:1023900081B0524901E081B051490A6802430A60A4
:1023A000096808400090009801B070477CB503F0C0
:1023B0006DFD00F050F800F074F80820FFF7E8FF1A
:1023C0000420FFF7E5FF00F03BFC00BF4BA00068D6
:1023D0000090444C206A0125ED430126304008D18D
:1023E0002068304320602068284020600120FFF7EB
:1023F000D2FFC020C0050090684603F059FD684632
:102400000021002206C0206A304008D1206806431F
:1024100026602068054025600120FFF7BCFF324898
:1024200000681028FBD36846A021490001800021E4
:102430008170019100F053FC2C482D49016003F09C
:10244000E9FE002801D000F03FF8002003F052FF21
:1024500003F0EFFFFCE780B588B0182102A8FFF772
:10246000E9FC68460021002206C00320029080207B
:10247000400203901020059002A804F03DF80028C7
:1024800001D000F021F800200090202001900021D0
:10249000684604F059F9002801D000F015F809B099
:1024A00000BD80B586B018216846FFF7C3FC022046
:1024B0000090C0020590684604F0E2F9002801D0BF
:1024C00000F002F807B000BD72B6BFF34F8F0948A5
:1024D00009490860BFF34F8F00BFFDE75000404837
:1024E000600040484000404810180060F80B002091
:1024F000000030480400FA050CED00E00000000088
:1025000080B504F05DFA80BDF8B506000F0000202C
:102510003880154C200000F024FB010023D120005E
:1025200000F023FB0400114DF00705D52100280021
:1025300000F01FFB010016D1280000F01EFB3880C0
:1025400021002800243000F014FB01000BD12100F1
:102550002800483000F00DFB010004D121002800C4
:102560006C3000F006FBF2BD2C040020C00F0410FC
:1025700080B5022801D9122080BD04F045FA80BD43
:10258000FEB504000E000020108002990880089912
:1025900008800520204032D03D4F380000F0E1FA9D
:1025A00001002DD13B4D280000F0E7FA0199088089
:1025B0002800243000F0E1FA02990880380000F089
:1025C000D4FA0700E00706D539002800483000F0AB
:1025D000D0FA010014D12800483000F0CEFA089952
:1025E0000880022E06D1390028006C3000F0C1FAB4
:1025F000010005D129A20821002000F002F80020E6
:10260000FEBD70B504000D001600224804E070B550
:1026100004000D001600204800F0AFFA33002A0035
:102620002100401C80B200F001F870BDF3B581B00C
:1026300017001D000024174E6946088024206043BF
:10264000301800F09AFA002804D0401C6946098826
:10265000884202D0641C042CF0D3042C09D06846B4
:102660000389242044433419206A8188DA1991426D
:1026700001DA1220FEBD29003A008068C018FFF779
:10268000FBFB206A0178890700D547800020FEBD4A
:10269000E8030020580300207C03002053544D33EE
:1026A0003257423080B504F00BFA80BD30B58BB0A4
:1026B00018AC24780A9417AC2478099416AC2478C2
:1026C000089415AC2478079414AC247806946D46CD
:1026D0004C242C57059412AC24780494119C039438
:1026E00010AC247802940FAC247801940E9C0094D2
:1026F00004F04AFA0BB030BD80B504F0D7FA02BD41
:102700001CB56C46247C009404F054FB16BD80B5C7
:1027100004F09CFB02BD80B504F0CEFB02BD80B589
:1027200004F0E2FB02BD80B504F036FC02BD80B5CA
:1027300004F06CFC02BD80B504F08AFC01BD80B5DC
:1027400004F0AAFC01BD80B504F0C8FC02BD80B550
:1027500004F0D8FC02BD80B504F060FD01BD80B579
:1027600004F082FD01BD80B504F0A6FD01BD80B579
:1027700004F0A9FD01BD80B504F0A6FD02BD80B541
:1027800004F0B6FD02BD80B504F0E6FD02BD80B5E3
:1027900004F00AFE01BD80B504F00CFE02BD80B558
:1027A00004F032FE02BD80B504F050FE01BD80B5DC
:1027B00004F060FE01BD80B504F0C6FE02BD80B528
:1027C00004F0C4FE02BD80B504F0C2FE02BD80B5B7
:1027D00004F0DAFE02BD80B504F0FBFE02BD80B558
:1027E00004F009FF02BD80B504F017FF02BD80B5FB
:1027F00004F046FF02BD80B504F07BFF02BD80B54A
:1028000004F085FF02BD80B504F08FFF02BD80B5E6
:1028100004F099FF02BD80B504F0A7FF02BD80B5AA
:1028200004F0B5FF02BD80B504F0B9FF02BD80B56C
:1028300004F0C4FF02BD80B504F0FAFF02BD80B50C
:1028400005F030F802BD80B505F082F801BD80B515
:1028500005F0AEF801BD80B505F032F901BD80B5D7
:1028600005F042F902BD80B505F0D8FA02BD80B589
:1028700005F014FB01BD80B505F062FB02BD80B51B
:1028800005F060FB02BD80B505F082FB01BD80B59F
:1028900005F0F8FB02BD80B505F0FCFC02BD80B57B
:1028A00005F019FD01BD80B505F021FD01BD80B524
:1028B00005F03FFD02BD80B505F03EFD01BD80B5D0
:1028C00005F068FD02BD80B505F0A6FE01BD80B52E
:1028D00005F0C4FE01BD80B505F0F4FE01BD80B574
:1028E00005F004FF01BD80B505F014FF01BD80B502
:1028F00005F024FF02BD80B505F04AFF01BD80B59B
:1029000006F0BCF801BD1CB56C46247C009406F0B2
:10291000C3F813BD80B506F0E7F801BD80B506F039
:10292000FBF801BD80B506F06BF902BD80B506F07D
:1029300085F902BD80B506F09DF902BD80B506F0AF
:10294000C3F902BD80B506F0EDF901BD80B506F012
:102950001FFA01BD80B506F043FA01BD1CB5059C08
:1029600001946C46247C009406F086FA16BD80B56E
:1029700006F07CFB01BD80B506F0C6FB01BD80B54D
:1029800006F01AFC01BD80B506F082FC01BD80B5E1
:1029900006F0C6FC01BD80B506F0DEFC01BD80B5C9
:1029A00006F04AFD02BD1CB56C46247C009406F07E
:1029B0008EFD13BD80B506F0CDFD01BD80B506F0DE
:1029C00025FE01BD80B506F029FE01BD80B506F0EB
:1029D0002DFE01BD80B506F031FE01BD80B506F0CB
:1029E0006DFE02BD80B506F07DFE01BD80B506F02E
:1029F0000DFF01BD1CB56C46A48A01946C46248A67
:102A0000009406F027FF13BD80B506F0F1FF01BD6D
:102A100080B507F0AAF801BD80B507F0ADF801BD9B
:102A200080B507F0BFF801BD80B507F0F5F801BD2E
:102A300080B507F02DF901BD80B507F069F902BD39
:102A400080B507F09DF902BD80B507F0ADF901BD75
:102A500080B507F069FA02BD18B587B010AC2478CC
:102A600006940FAC247805940EAC247804940DAC35
:102A7000247803940CAC247802940BAC2478019451
:102A80000AAC2478009407F051FA08B010BD80B564
:102A900007F07CFA02BD80B507F0BAFA02BD80B536
:102AA00007F066FB01BD80B507F040FC01BD80B5B5
:102AB00007F062FC01BD80B507F020FD02BD80B5C6
:102AC00007F054FD01BD80B507F0A0FD01BD80B544
:102AD00007F000FE01BD80B507F00CFE01BD80B51A
:102AE00007F028FE01BD80B507F048FE01BD80B5A6
:102AF00007F0F0FE01BD1CB56C46A48A01946C463B
:102B0000248A009407F0FAFE16BD1FB56C46248C8B
:102B100002946C46A48B01946C46248B009407F0BD
:102B2000FFFE04B010BD80B507F00EFF02BD80B5FA
:102B300007F020FF02BD80B507F02CFF02BD1FB5D6
:102B400008AC247802946C46247F01946C46247E61
:102B5000009407F027FF04B010BD80B507F066FFB2
:102B600002BD80B507F06EFF02BD80B507F06EFFB5
:102B700002BD80B507F06EFF02BD80B507F06EFFA5
:102B800002BD18B585B00CAC247804940BAC247845
:102B900003946C46248D02946C46A48C01946C467C
:102BA000248C009407F05EFF06B010BD80B507F0DE
:102BB0006CFF02BD80B507F06EFF02BD80B507F067
:102BC000B1FF02BD80B507F0C5FF02BD18B585B0E5
:102BD0000CAC247804940BAC247803940AAC2478CD
:102BE000029409AC2478019408AC2478009407F08E
:102BF000CFFF06B010BDE0B501A90870012208465C
:102C0000114608F047F8002800D08CBD01A80078D4
:102C100008F05EF88CBD1CB50446684608F074F8F0
:102C20000020082806D06946095C225C0A43225429
:102C3000401CF6E7204608F09FF81CBD704770471F
:102C4000704780B508F0A8F880BD830085000700B4
:102C500007008300850005000700030003000F0044
:102C6000050082008100050080B508F0C9F8002841
:102C700004D104480068C07A002801D0002080BD3B
:102C8000032080BD040C0020010005D40121C006F2
:102C9000C00E8140604801607047C16803229143C3
:102CA00002220A43C260704701E0000000BFC16811
:102CB00003229143C160704701617047816A574A9E
:102CC0000A408262704700697047816A80229205DB
:102CD0000A438262704780687047C0687047F1B5E8
:102CE00001274F48C06B38434D49C8630846806B85
:102CF000384388631720FFF7C7FF1420FFF7C4FF8E
:102D000000984068002800D00120464D2870002619
:102D1000000603D100988078002813D04248C1688B
:102D2000C907FBD517210160C1683943C1604660FE
:102D3000C1683940FCD02800103000F0AFFAE869D3
:102D4000286209E0C82040032862E8613748A8618A
:102D5000374828613748686100984068002802D1E8
:102D6000A020C0050DE000030A2108F06CF868609F
:102D7000BC4C200000F01AFA01006868884202D3B7
:102D8000200000F013FA68602E7200980088290075
:102D900058310861A96900F007FBB34C002020708E
:102DA00000212A005832183203C21D480068290049
:102DB00058318862002000212A005832203203C294
:102DC0002A00283203C234216854A84AA9696868D5
:102DD00008F090F8286328782074A660277366733B
:102DE000E681290058314E72290058314E81AE6576
:102DF000EE65AB48A8646E6500F0DFF96A680023F1
:102E000012184B412800403000F0ECFA0121280054
:102E100000F072FAF1BD000000E100E0FFFFFFBF2B
:102E2000101800600008002004100060C2F528009F
:102E30008D5B0000ECEB6501F8B586B000246946B7
:102E40000C70EFF3108572B696480190407A002816
:102E50000BD000F0B2F9944EB26DF36D8B4204D8F2
:102E600001D3824201D20198447285F310888E4FBB
:102E700038009130029028E0401C1CE00469057382
:102E80008168002900D088472000F7D16946019861
:102E9000406B00F025FB01994863684600780128E3
:102EA0000DD1EFF3108172B602980078421C029B9C
:102EB0005B789A42E0D1029A107081F310880298F0
:102EC0004078059940180299487002984078029914
:102ED00009780A1A02D28020400012180026002A1F
:102EE0002AD005926F480190446B04940394002506
:102EF00002E0260024696D1C002C0FD0207B0028E6
:102F0000F7D000F05AF902000B0003CC083C801AFD
:102F100099410029EDDB01DC0628EAD328000025D1
:102F2000002802D03561049400E0039504980199CB
:102F3000486303980028A8E7387A00287AD07048B8
:102F400000680124204074D03E726E48C178002988
:102F500004D18178002901D0867057E038780028A4
:102F600010D03800103000F099F9B96938005830A5
:102F7000006980B200F018FA0021380000F0BCF9B6
:102F800034203C54EFF31080029072B65E4804681F
:102F9000386A01905D4D2A00014638005830806A39
:102FA000201A07F0A7FF390028310CC9002180182A
:102FB00059413A005832183203C23878002816D1E5
:102FC00038005830806A201A396B88420FD22A00A4
:102FD00001990020C04307F08DFF324D29001831C0
:102FE0000CC90021801859412A00183203C2380048
:102FF0005830846238005830183003C83A002832FC
:1030000003C2F8693862029880F310886946380074
:10301000583000F0D7FA3800403000F0E2F800F005
:10302000CCF87A68002312184B413800403000F089
:10303000D9F915E03878002812D000F0BEF83A002F
:1030400028320CCAFA2464030025A4185D418D427D
:1030500006D801D3844203D23800403000F0B5F9DD
:1030600007B0F0BDFFEFFFFF84080020260300003B
:103070007CB505004C4806680B4C6946200000F002
:10308000F3F903C5083D214AE1690098801B07F068
:1030900031FF020003CD0023801A99417CBD00005E
:1030A000CB3304105808002000080020F8B50300B6
:1030B000140000206A4610700D0000D00125434A1C
:1030C000110060310D71250000D001250D70140034
:1030D0002834C0CC9C1B0025A4197D419465D5657E
:1030E0004870C8700120887069461000583000F0A0
:1030F00069FA012000F044FA68460078F2BD000049
:1031000010100060910800201018006035060000C3
:1031100070B50320C04377490A6802400A600A6814
:1031200010400860284801685A4A0A400260274C4B
:1031300020005830002545724581EFF3108672B6A5
:1031400000F03BF8A26DE36D121A8B418420205CE5
:103150000021121A8B4186F31088002B04DC01DB5E
:10316000012A01D2012070BD002B04DC01DB0F2AF3
:1031700001D2022070BD002070BDEFF3108072B646
:10318000454909685B4A891C5160116803239943CA
:1031900002230B43136080F31088704770470020B0
:1031A0008F490870704700001400006080B56E4AB7
:1031B0000649C96907F09EFE02BD80B5694603480D
:1031C00000F052F904BD000028180060000800203B
:1031D00010B500F007F90400012000F0D1F9E0B2C9
:1031E00010BDF8B59F4C21680E00002300250A0091
:1031F00001E035003669002E07D08642F9D13769E3
:103200008E4201D13A0000E02F616D462B700373AE
:103210002068904215D06946100000F061F92060E6
:103220006846007800280DD0EFF3108072B66179FF
:103230004A1CA3799A4200D0491C617180F310881E
:10324000F1BD2260F1BD18B50020009000980B4838
:103250000168104A0A400260A0490A78531C4C7861
:10326000A34200D0521C0A700121C2690A43C26104
:10327000C0690140009111BD0000000030180060DD
:10328000BC48816801220A438260002101607047C6
:1032900000000000FFFFFFBF1018006070B50400C1
:1032A000B54D2800FFF717FD06002800FFF713FDB6
:1032B0008642F6D1002EF4D0B04932124A43F3B21E
:1032C0004B431912511810314911E1602660280052
:1032D000FFF703FD06002800FFF7FFFC8642F6D14A
:1032E000002EF4D0B011B149484380300012A060E4
:1032F000666070BD0C000060F8B505000F00AC4CB6
:10330000607A7D214843C90007F09AFD461CF6B259
:10331000A84AA9691B2007F0EDFD2070607800F035
:103320002DF83D216854E078801900F027F8382105
:1033300068542079801900F021F8392168546079A7
:1033400000F01CF83A216854A07900F017F83B21EE
:103350006854002F06D0E078801900F007F81B3081
:103360003C216854F1BD000035060000682141434E
:10337000090ADB225043000C0818704700B5020010
:103380008D4840690021002307F0E6FD0322002359
:1033900007F0E2FD8022D204002312184B41D20E26
:1033A00058010243100000BD80B5824A07F0A2FD1B
:1033B0008249884201DD080002E0102800DA10206E
:1033C0000005000E7E49086001BD10B57A4C2078DA
:1033D000002801D0FFF754FF0120207210BD00002B
:1033E00063080020FEB500256C462570017B00298E
:1033F00001D00120FEBD0CC0083801210173194C19
:1034000026680196070001E035003669002E08D0D5
:103410000CCE083E03CF083F8B42F5D301D8824241
:10342000F2D338000661002D01D1019000E028613F
:103430000199814213D1694600F052F82060684634
:10344000007800280BD0EFF3108072B661794A1C27
:10345000A3799A4200D0491C617180F310886846B4
:103460000078FEBD8C0800207FB504000D00EFF34E
:10347000108672B6206F616F02AA03C2BE48FFF7C2
:1034800022FC03002B60BD4D02A803C800900191EF
:103490002A00E16980202058181A07F02BFD00212E
:1034A000009A019B80185941A26FE36F99420FD88F
:1034B00001D390420CD2009001912A00E1690020D2
:1034C000C04307F017FD0021009A019B8018594165
:1034D000A067E16786F3108804B070BD91080020F2
:1034E000F1B584B00F0004460020387000E0246974
:1034F000002C3BD0207B0028F9D0EFF31080009007
:1035000072B6FFF75AFE0CCC083C121A8B4102A887
:103510000CC002A803C800291EDB01DC01281BD354
:10352000244A2548836902A803C8190007F0E2FC71
:103530000500202D00D820258F4E3000FFF7C3FB5B
:1035400040190830F0623000FFF7BFFB306B80217C
:10355000C9050143316301E001203870009880F310
:1035600010883878002801D0049800E0200005B0C9
:10357000F0BD00000810006000100060F6BC0800FC
:1035800010B589490C009034002808D02078002814
:103590000BD108004030FFF718FF012004E00800BD
:1035A0004030FFF71EFE0020207010BD53070000C2
:1035B000C50000202603000000080020FF0F0000C7
:1035C00008180060F3B589B0002008700998807A67
:1035D000002800D1CDE0744C200028300CC8606871
:1035E00000218018594106AA03C2EFF3108004900D
:1035F00072B6FFF7E2FD02000B00099803C802ADA6
:1036000003C502A803C80090019106A803C8C826F4
:10361000B602002736184F4100980199B9420FD3DE
:1036200001D8B0420CD306A803C8B92676000027FB
:1036300036184F419F4201D802D3964200D395E0FD
:10364000012600200A32434102A803C800254C3855
:10365000A9418B4201D802D3824200D382E009986B
:10366000027A02A803C805003C20205C0999097B66
:10367000012905D1002A01D0382106E0392104E0D2
:10368000002A01D03A2100E03B21615C00910190C9
:1036900002A92000FFF7E8FE2D1A444AA16928007C
:1036A00007F028FC0390C027FF050198A16E401881
:1036B000C830A84203981AD23D490978401A0099A7
:1036C000451A029840192C4948623800FFF7ECFA75
:1036D0003800FFF7EBFA2848806AB1070143264813
:1036E0008162FFF7F2FA00983149097812E03D2132
:1036F000615C401A0099451A029841193800FFF799
:10370000DBFA1D48FFF7DAFA3800FFF7C6FA00982F
:103710003D21615C40180299039A891822006832A1
:1037200011622A18411D8A420AD23800FFF7BCFAFA
:103730003800FFF7BBFA1048FFF7C0FA012007E096
:103740000E4AE16907F0D6FB2100683108770020B6
:103750000A99087000200999887209994E7209988F
:10376000C67203E0622165540A980670049880F3DB
:1037700010880BB0F0BD0000001800603506000096
:1037800080B5FFF760FDFDF7D5FE01BD81B00020DB
:10379000009000980748016801220A43026000680F
:1037A000009001B0704700000008002026030000D0
:1037B000C50000207400006001680022028142817F
:1037C000828182730B78FF2B05D0FE2B09D10389F0
:1037D0005B1C03810AE04268511A091F81810020A5
:1037E0007047002B0DD143895B1C43814A88D21C52
:1037F000032313435B1CC9184A1D43689A42E1D353
:10380000EDE703207047F3B5079C0899250005D024
:103810006D466C80FE242C706C4600E04468856820
:103820004668AE4217D22678FF2E14D0067B002EB3
:1038300004D0002606732678002E0ED146686488D0
:10384000E41C032727437F1CF4194460AC4202D2D6
:103850002678FF2EEFD10420F6BDFE2E01D00320E6
:10386000F6BD6E463679FF2E04D066786F463F79F6
:10387000BE42E3D14068001D1060608818800029B6
:1038800001D0607808700020F6BD7FB515001C00DF
:10389000099E002232800B9A01926A46128D009294
:1038A00002AB03AAFFF7AFFF010013D169460989F4
:1038B0008D4201D306200DE0089A481B904200DAA1
:1038C0000200200003994919FEF7D6FA68460089DC
:1038D0003080002004B070BDFEB5BB4D0D40491BCB
:1038E0006B4619700024070016000AE00422311903
:1038F00001A8FEF7C1FA019A3919002007F046FB2A
:10390000241DAC42F2DB0020C043019068460278DF
:10391000711901A8FEF7B0FA019A7919002007F091
:1039200035FBF7BD70B544688668B44202D226788C
:10393000FF2E01D1042070BD007B002801D1FE2E96
:1039400001D0052070BD6588A94201D3062070BD55
:1039500010001A00231D591807F08EFB002801D013
:103960000020C04370BD7CB5079C0025069E3580B5
:10397000250005D06D466C80FE242C706C4600E05E
:10398000446845688668B54202D22678FF2E01D188
:10399000042076BD007B002801D1FE2E01D0052039
:1039A00076BD6088814201D3062076BD401A9842D8
:1039B00000DA030010001A002B1D5918FEF75CFAFC
:1039C000608806990880002076BDF8B584B00700AD
:1039D0000E001500B44C254203D107F04DFB002822
:1039E00020D001A80C21FEF725FACD483818C00ACE
:1039F0000290681E0443641C6003000E0390694635
:103A000001A807F049FB00240AE06010800F0019AC
:103A10000321884332583919002007F0B7FA241DD2
:103A2000AC42F2D305B0F0BD01210170002141800C
:103A300081807047F1B588B00C0015001E00002091
:103A40000090FF2229002000FEF7F6F9FE206946CB
:103A5000087507946846458206960E9D009C05AE43
:103A600019E06846008A6988401A401E032404430E
:103A7000641CA4B268886946098A0A1A521E032186
:103A80001143491C89B28F4242DB01200022B94216
:103A900028706A8040D06846408A071B3F1FBFB22B
:103AA0002878002826D0701C0390A888029004A8CB
:103AB000019000970798001D03190022FF21089824
:103AC000FFF7E3FE6946098AA98001000ED1684626
:103AD000008A7080042205A907980019FEF7CCF926
:103AE0007088C01C032101436418C1E706990C804B
:103AF00009B0F0BDA888019004A800903B00079889
:103B0000021969880898FFF72EFF0100A9D0EFE796
:103B100000212970C01968806846408A069908808B
:103B20000020E5E7F8B5AE4CA544AE4902001423E9
:103B30005A438F187989002901D1002040E004A957
:103B400000F013F9059D02A8FFF76EFF80263601ED
:103B500002A8009001AB320008A904A8FFF76AFF91
:103B60000400042C06D0002C2AD168468088B0427C
:103B7000EED103E068468088002808D06846828835
:103B800008A92800FFF721FFAD19002CE0D008A8F4
:103B90000C21FEF74FF9624828184003000E0990E7
:103BA0000698401E711E0143491C481B4003000E2D
:103BB0000A90694608A807F06FFA3800FFF7FCFD85
:103BC00089498D44F0BD0000FCFF0000F8B5844C2D
:103BD000A54400216A469171002200238149060014
:103BE0000BE0B0680C245C43005D142460430818AB
:103BF0004089002800D001225B1C30798342F0DB31
:103C0000002A25D080221201FF2108A807F08CFA93
:103C10000025802424010DE002A8FFF705FF02A87B
:103C2000009001ABE21B92B208A8C11904A8FFF7EB
:103C300001FF6D1C307985420CDAB0680C226A43B2
:103C4000011D8F5804A9805C00F08FF80028E3D094
:103C500000201BE0220008A93068FFF7B6FE614C87
:103C6000370069468D7900260CE0B8680C21714355
:103C7000405C142148432018FFF79EFD010000D04E
:103C80000500761C38798642EFDB280056498D44C2
:103C9000F0BD95498A79824201D102207047897C22
:103CA0008142FAD000207047FF070000F8B54C4C65
:103CB000A54404000E0080221201FF2108A807F08D
:103CC00033FA002568460471802424011CE00C2787
:103CD0006F43B068C05D6A461279904213D004A960
:103CE00000F043F8B068C019476802A8FFF79CFECF
:103CF00002A8009001AB9B1CE21B92B208A8C1195C
:103D000004A8FFF797FE6D1C30798542DFDB2200A7
:103D100008A93068FFF759FE002033498D44F0BDF3
:103D20000000FCEF10B500246F480C2161434118DE
:103D30008A792C4814235343C0180368002B10D1F0
:103D4000012A0EDC0A6802608B88D2184260098959
:103D50000182FFF731FD010004D1641C012CE3DD79
:103D600001E0012010BD002010BD10B50200022AA4
:103D700001DB012010BD1B4B142462439A18136809
:103D80004B6052688A6001220A73087000204873F1
:103D900010BD7FB5694C0578142675436419A47B62
:103DA000002C01D00A2008E003940294099C01949D
:103DB0006C46248C0094FFF768FD04B070BD7CB5A0
:103DC000A04C0578142675436419A47B002C01D0FF
:103DD0000A2076BD0194069C0094FFF7C4FD76BDD1
:103DE000E0F7FFFF7C0B002024080000FAB583B049
:103DF00017000325791E03260E43761C0CE00C7871
:103E0000FF2C18D0FE2C01D0002C69D14A88D21C7E
:103E10002A43521C89184160826841684B1D9342B5
:103E2000EDD38849007814225043081840890028AF
:103E300054D1022055E00290501A834B984201D28F
:103E4000521A00E01A467F4C92B2B0B26B461B8DFC
:103E5000C018001D824239DB6846007B0191FE21BB
:103E60006A461170694648706846008D301848806F
:103E7000009A0199002007F089F8049AB1B20198DC
:103E8000001DFFF729FD0B9A6846018D0198B6B217
:103E90008019001DFFF720FD2000083002990978E5
:103EA0001422514340180188491C0180029800786F
:103EB00014214843201881896A46128DBA18521E6F
:103EC0001543491B491F818100200AE002980078B0
:103ED00014214843201840890028AAD00B2000E074
:103EE000032005B0F0BD00005010041010B5040010
:103EF0006168A06881421ED20878FF281BD0FE2886
:103F000017D1FF22D243002007F040F84D480100AE
:103F10000831227814235A4389180A88521E0A80CD
:103F200021781422514340184189491C41810020C5
:103F300010BD052010BD042010BD00007C0B00202A
:103F400078B585B004006946FFF7A3FE3D4D022811
:103F50001ED1142044432C19256802A80C21FDF71A
:103F600069FF3A4828184003000E03906068401E1D
:103F700037490143491C481B4003000E049001A926
:103F800002A807F089F82000FFF716FC00201BE0CC
:103F9000012818D100992000FFF788FE040010D1F5
:103FA00000260AE0009880680C217143405C1421CF
:103FB00048432818FFF700FC761C009800798642D9
:103FC000F0DB200000E0012006B070BD1CB504004D
:103FD0006946FFF75EFE022803D12000FFF7A2FD2D
:103FE00016BD012803D10098FFF7F0FD16BD012092
:103FF00016BD38B5174800214356DAB2114C1425C6
:10400000554364196589002D03D0A589248AA542EA
:1040100007D3521CD2B2022A00D100229A42EDD11B
:1040200006E0531C5CB2022C00D10023190001E011
:104030000022D2430170100602D4D0B2FFF7C6FFAF
:10404000002032BD7C0B0020FFFF00000000FCEFD1
:10405000FF07000033000020F0B583B0044643485A
:104060000460204607F046F90546204607F032F97D
:104070000646684600F092FE0099091A4B0B3C492F
:104080000A681146D831002B02D11060012000E0EF
:104090000020087037480068447B0021FF2C0AD0BC
:1040A0002C206043344A12681018827C002A02D007
:1040B000416AC068FFE70127002E05D0002D03D11B
:1040C00000292A4E08D109E0002D284E06D02B4A9F
:1040D000914203D1002901D088470027306807F0BA
:1040E00005F9002801D004251EE0306807F0E8F843
:1040F000002801D0012517E0306807F0E5F8002816
:1041000001D0022510E0306807F0F8F805250028F6
:104110000AD1306807F0F6F8002805D1306807F0BA
:10412000BBF800281FD000250120A84014490968C9
:104130000A6802430A60002007F04AFB00F029FEEB
:10414000204607F057FB0A480468607D012808D123
:10415000217C0F200840E268090907F00DFD0020CE
:10416000607503B0F0BD002FE8D1ECE73C0C0020F7
:10417000040C0020080C00200C0C0020BF280410A8
:10418000480C0020BCB55D4CA16900910840A061BD
:1041900035E0521CD300E51803000B402F681F4088
:1041A000F7D02A68104001406868084002D100201A
:1041B000C04368606868084000F0A4F801006A68BD
:1041C0000120884082436A606162EFF3108172B619
:1041D000626A01209040C2432069104020610220A1
:1041E000C300E318083B1D6815401D60401EF7D151
:1041F00081F310884248616A8900405880472369EA
:10420000E2696069256AA16903400B4003D015404B
:1042100001D10022BEE70020C0436062206A104046
:1042200014D102F00CF9EFF3108572B62169E06940
:1042300062690A40A169114004D1216A014001D19B
:1042400002F0FEF885F3108807F097FC0098A06153
:10425000B3BD38B51400EFF3108572B600F052F814
:10426000800027490C5085F3108831BD10B5EFF35D
:10427000108272B6214B1C6904431C61C900591895
:104280000B681843086082F3108810BDEFF31081AB
:1042900072B61A4AD3691843D06181F31088704707
:1042A000EFF3108172B6154AD3698343D36181F36A
:1042B00010887047F8B5114D696A00910022D24309
:1042C000914201D1002701E001278F402E6A286228
:1042D000040003E02100380007F050FCE8692040AA
:1042E000F8D000986862EFF3108072B6E969A143D4
:1042F000E96180F310882E62F1BD000058040020AF
:104300002C0900200021020C120401D1102100040C
:10431000020E120601D108310002020F120701D16C
:10432000091D00011F22511A02A2000F105C081A79
:10433000C0B2704704030202010101010000000045
:104340000000000010B5FFF7EDFC424C211D0020DD
:10435000FFF70BFD210014310120FFF706FD201DA2
:10436000206010BD3EB53B4D022802D12C00143414
:1043700000E02C1D2C6001936B461B8B00930B00FF
:1043800001002000FFF732FD002805D0022801D1EE
:10439000002000E00120C0433EBDF8B584B00E000F
:1043A00019002C4C022E03D125001435012301E005
:1043B000251D00230700256028466D466A8103916C
:1043C0000A9D022F08D102A900912B00039A694689
:1043D0004989FFF7F4FC0FE0002F03D1010018001A
:1043E000FFF7C3FC02A801900095039B6846428931
:1043F00031002068FFF7CDFC010001D1002005E06D
:10440000042801D1022000E00120C04305B0F0BD26
:1044100010B5140023000A0001000E480068FFF7E1
:1044200081FA002804D001D5200010BD0220C0432D
:1044300010BD80B5022807D10649086814318842AA
:1044400007D0FFF753FD01BD032802D10020FFF77D
:1044500077FD01BDA40B00200120FFE7094908609A
:10446000002070470020EFF3108172B6054A1368F0
:10447000032B02D00120C04301E00123136081F32C
:10448000108870475404002038B50024C54D3B20E7
:104490006043281807F077FB641C042CF7D331BD68
:1044A000F8B50C001600FF2909D00700042801D335
:1044B0000220F2BD122007F0B7FB050001D1012058
:1044C000F2BD2900B7483B225743C01907F065FBEE
:1044D000EE600A202872002028746C74F2BDF2B5D8
:1044E00015001E0069460978042907D20700000953
:1044F000801C103007F098FB040001D10020F2BDB1
:104500002100BC486A4612783B235A43801807F0C2
:1045100044FBE660FF2D01D1052000E00A20207257
:10452000277465742000F2BD70B51C0013000A00EA
:104530000100B020FFF7D3FF050001D1012070BDBD
:10454000049EAC740024EC7407211430FDF772FC57
:10455000300001D1EC7605E0012E01D1EE7601E0CC
:104560000220E8762C77002070BD38B51D001300BE
:104570000A000100BF20FFF7B2FF040001D10120B3
:1045800032BD0B211230FDF755FC280007F0ECFB83
:104590000B2803D2280007F0E7FB00E00B20020005
:1045A000290020001230FDF767FC002032BD10B555
:1045B0001C0013000A0001003F20FFF790FF0028B5
:1045C00001D1012010BD02998474220AC2740175C0
:1045D000002010BD10B51C0013000A0001001020BF
:1045E000FFF77DFF002801D1012010BD8474002059
:1045F00010BD10B51C0013000A0001002020FFF7B9
:104600006EFF002801D1012010BD02998474C1748D
:10461000002010BDF1B592B00024002712A8007848
:10462000042871D212A800786946087501255D48F2
:1046300012A909783B22514340180190019807F0D4
:104640009BFB009000260CE0401E00990872694612
:10465000009807F0DCFA002C03D0200007F097FB4D
:10466000002400980199884223D07F1CF8B20828C2
:1046700003DD0098407CFF281BD10098007C0009D6
:10468000801C029002982818312812D2029A0099B0
:10469000103105A84019FDF7EFFB02982D18EDB277
:1046A0000098007A0028CFD1009807F08DFA009C7E
:1046B000CDE7012D01D10E7226E0681C487234202E
:1046C000019988722A0005A901980B30FDF7D4FBE7
:1046D000AD1C0198057203A812A9097801704670F3
:1046E00008218170C57001980930049003AA012146
:1046F000002007F050FB01003F4802D0FDF734FED8
:1047000002E04C30FDF730FE13B0F0BDF8B584B0D8
:104710000400170000200390042C40D21E00707883
:1047200034283CD16A46200000F03EF8002836D1FB
:104730001C4821003B22514340180290029807F088
:104740001BFB0190B01C69464C70039D04001FE0E8
:104750000198407C6946097888420FD10198C36866
:10476000002B03D02200684640789847019807F054
:104770002BFA019D20780009801C241801A90198BA
:1047800007F045FA002D03D0280007F000FB0025B4
:1047900001980299884202D0F0198442D8D305B01A
:1047A000F0BD0000A806002070B50023DB430428FC
:1047B0001DD2104C3B256843201806000B36047AA6
:1047C000FE34E4B2751C0800190003E02B781B09C5
:1047D0009B1CED1833199D4209D2491C4BB28342F0
:1047E000F4D16878FF2802D01070002070BD01203D
:1047F00070BD0000A8060020DC0E0410F0B593B0D8
:104800001F4615460E4612901C9C0846114622462D
:1048100007F0DAFA002824D122980D901FAB0DCBB7
:1048200011901E980F901D980E901B980C901A993D
:1048300019981097189F089209930D9A0A92009759
:10484000019002910C98039004940E9805900F9893
:10485000069011980790129831462A46109BFDF752
:1048600025FF13B0F0BD0300FFFFFFFFFFFFFFFFB9
:10487000FFFFFFFFFFFF010000000000FFFF01003E
:104880000000FFFF010042221201D21E004207D0A9
:1048900002D4521E0018FCD5C10A40051205891821
:1048A000704700000100EED54042F446FFF7EBFFF1
:1048B0000122D20711436047F0B50E005E4001258A
:1048C000ED072E40B446AE0ADF184C18F44208D269
:1048D000F7420ED2640D01D07F0D12D10020614647
:1048E000F0BD05D1F74201D87F0D05D10020C143AD
:1048F000F0BDFBD1640DF9D00020C1434905490842
:104900008FE0E419C902DB0229432B43DB0A460D81
:10491000C00231438E4630B487B295B27D432E0C2F
:10492000ADB2140C7C43A419260C240425439CB27C
:104930007C43A419190C7943270CC919A4B20F049C
:104940003C43090C000C97B247432E0CBE1935436B
:10495000ADB2170C4743360CBF19A6B2BF193E04BF
:104960003543240C3E0C36199FB24743BF19BCB2E5
:104970003E0C89191F0C47437F183E043443390C01
:10498000704680B297B247432E0CBE193543ADB284
:10499000170C4743360CBF19A6B2BF193E04354366
:1049A000240C3E0C36199FB24743BF19BCB23E0CD3
:1049B00089191F0C47437F183E043443390C77464E
:1049C0003F0C90B278432E0C80190604ADB22E43F2
:1049D000050CA0B22D18120C7A435019020C80B2AB
:1049E000240CA4189AB27A43121914042043120C0E
:1049F00089181B0C7B43C91830BCEF0A394203D11C
:104A0000B61940414941641E6F12BF0DE41B0BDB18
:104A1000FF19BC4211DA240500274208AE41784153
:104A2000614166463143F0BD641C05D1401C6141C3
:104A3000CF0201D34908F4E750E75DE730B4012421
:104A400064054D00EC420BD85D00EC4208D80C0028
:104A50001C4364000443144304D28B4200D18242BD
:104A600030BC7047FCD09942FAD19042F8E77047C9
:104A7000F4464A1805D200F00FF801D58017400817
:104A8000604700F009F80121C907884200D90800F1
:104A9000404260474A1812D2400DC9020843012122
:104AA000C9070843520D40210901521A521C06D46D
:104AB00052421F3201D4D0407047C01770470020C7
:104AC0007047F0B40125ED070F005F404FD48B42D3
:104AD00000D1824205D98446100062468C461900F6
:104AE0006346DF184C18640D7F0D3AD0661C7605BE
:104AF00037D0E61B352E34DCDB022B43DB0A0C0DF2
:104B0000C9022943C912202E0DDB1700203E06D012
:104B10001F00F741F3405F400026012A7741C0188B
:104B200071410DD217E01700F741F2405740F341B1
:104B30005A40B340F3405A400026801859410AD3E6
:104B4000A21C52050FD0C207012F72411700400866
:104B5000CB0718434908641C24054208AF41704143
:104B60006141F0BC7047641C21050020F9E76B40EF
:104B700010E06B40ABE7F742F3D1E943F1E72442A1
:104B8000EFD100200021ECE7F0B40125ED070F0084
:104B90005F40EED40C00871A9C4105D2C01BA14196
:104BA000D219634169406B40AE0ADF184C18F442D9
:104BB000E1D2640D7F0DE2D0E61B362ED1DCDB02A4
:104BC0002B43DB0AA4460C0DC9022943C90A012E56
:104BD00028DC04D1D6075208DF073A435B08EF0A06
:104BE00076429041994114D039423BD1B6194041A7
:104BF0004941761C394204D1761C0018494139429A
:104C0000FAD0B9436746B74208D9A41B240521430B
:104C1000A7E70042EAD13642E8D1A2E7E40AE10779
:104C200000209EE7202E0BDD203E1F00F340F741C1
:104C30005F40012A002257417E42984191410BE09A
:104C40001700F741F2405740F3415A40B340F34058
:104C50005A407E42904199410A0303D2641EB6191C
:104C6000404149410027641E24054208AE41784175
:104C70006141F0BC7047704738B5050007F0B8F8DF
:104C800004000020C043854202D0044800782D185B
:104C900007F0AEF8001BA842FAD331BD8004002013
:104CA0007CB51C4615460E4601A9087008463146DB
:104CB0001A4605F0EFFF002800D07CBD01A800785F
:104CC00031462A46234607F099F87CBD80B507F0A7
:104CD000B3F801BD80B50B0011001A00FDF7ACF868
:104CE00001BD80B506F0C8F902BD7FB504000D0016
:104CF0001600684607F006F9684601782170417889
:104D00002970807830707FBD80B507F04BF901BD08
:104D100080B507F089F902BD80B507F0A7F902BD9B
:104D200080B507F0D7FA02BD80B507F02BFB01BDB7
:104D300080B507F02FFB01BD80B507F03DFB02BD3C
:104D400080B507F057FB02BD80B507F075FB02BDCB
:104D500080B507F073FB02BD80B507F071FB01BDA4
:104D600080B501F003FA02BD80B507F0F4F802BD8A
:104D700080B5FEF722FA04BD80B5FEF729FA02BD20
:104D800080B5FEF72EFA01BD80B5FEF78FF9C0B2EF
:104D900002BD80B5FEF7BCF9C0B202BD80B5FEF71A
:104DA00067F904BD80B5FEF7E8F901BD0020704742
:104DB0000020704700207047002070470020704797
:104DC000002070470020704700207047F0B597B072
:104DD0000126B104544812910160BFF34F8FBFF315
:104DE0006F8F06F03AFAFFF7D4FF0024E04306F095
:104DF00022FAFFF7DBFF1190FFF7DAFF1090FDF7C3
:104E000027FE1390FFF7D6FF0F90FFF7D5FFFDF7B2
:104E1000D2FC0E90FFF7D2FF0790FDF72CFD0D900E
:104E2000FDF745FD0C90FFF7CBFF0B90FFF7CAFF96
:104E30000A90FDF7C4FC0990FFF7C6FF089007F041
:104E40003DFB3621304607F03FFB3849C97A342212
:104E50008154374D28600470286844702868847035
:104E60002868E121C1700520C001296888803020B0
:104E7000088516AF15A914AA3846FFF736FF14980F
:104E80000002397809010143159800030843001D09
:104E9000296848851821304607F016FB2549086027
:104EA000047507F01BFB0898C0B20999CCB20A99A7
:104EB000C9B20B9AD2B20C9BDBB20D9EF6B20E9F1A
:104EC000FFB2009701960293039204910594069015
:104ED0001198C0B21099CEB20F99CBB23146139A45
:104EE000FDF7BAFDFDF7A7FC012C01D1FDF76BFC26
:104EF00007F0FEFA28682C21405CC0070FD1012C76
:104F000007D10798C0B2FDF79AFCFDF7D8FDFDF771
:104F1000DAFD304613993A46234607F045FB06482A
:104F20001299016017B0F0BD80E100E0140B002081
:104F3000440C0020600C002000E100E00100202073
:104F400008437047FDB5B2B03A98049102A93B22DC
:104F5000885400200D9024A8401C2F900DE0049848
:104F6000329A90470490002801D100F0B7FE0D98C6
:104F7000401C0D903398401C3390339801780029E1
:104F800010D02529EBD100200790089009900A90B5
:104F90000B900C9000210224012014900820129004
:104FA000339D05E00D9800F09BFE08001499014325
:104FB0006D1C28782028F8D023280BD02B2804D06B
:104FC0002D2804D0302808D00AE02143F0E708005B
:104FD0000421ECE708000821E9E708001021E6E7D2
:104FE0002A280FD1349802681068121D349B1A6069
:104FF0000F90002804D542420F920800042101437B
:105000006D1C12E000200F90644A09E00F9B934250
:1050100005DA9E00F3185B00181830380F906D1CED
:1050200028780300303B0A2BF0D328782E2803D0B1
:105030000020C0430E9027E06D1C28782A2808D154
:10504000349800680268001D349B18600E926D1C35
:105050001AE02D2802D12D226D1C00E00022002034
:105060000E900CE0002A09D10E9B4C4EB34205DA9B
:105070009E00F3185B00181830380E906D1C2878CD
:105080000300303B0A2BEDD302A801872E783100B4
:1050900040487844FF30401E07F0E6FA002801D06F
:1050A0006D1C00E0002602A83A214654405C6828A6
:1050B00004D1287868280BD1622005E06C2807D13C
:1050C00028786C2804D1712002A93A2288546D1CDA
:1050D00015A80690287869460870681C33906846C1
:1050E00002781000253833D01C3800D1CCE1001FE5
:1050F000022800D8C8E1133801D100F019FD0938A1
:1051000000D1C1E1801E01D100F0AFFD401E01D1F0
:1051100000F05CFD401E022800D8B5E1001F01D15F
:1051200000F054FD401F00D108E1401E01D100F005
:10513000FFFC401E00D1F0E0C01E0ED0801E01D149
:1051400000F0F6FCC01E01D100F0F2FC00F098FD6A
:1051500014980790252015A97CE13498006804680C
:10516000001D349908600594002C00D0C1E002A80D
:105170003B21405C002800D1B5E00024E443064810
:105180007844143007F07AFA201A01D000F0A6FD16
:1051900000F083FDF8BEFFFF2CBFFFFFCBCCCC0C93
:1051A00001236A4602A9280000F054FE002801D01D
:1051B00000F094FD641EF3D13295079D15AC002DCF
:1051C0000FD0329E21780498B0470490002801D176
:1051D00000F084FD0D98401C0D90641C6D1EF1D1F3
:1051E00032963020694608700A9C002C0DDD329DF5
:1051F00001236A4602A9280000F02CFE002801D0F5
:1052000000F06CFD641EF3D13295059C089D002DC5
:105210000FD0329E21780498B0470490002801D125
:1052200000F05CFD0D98401C0D90641C6D1EF1D1CA
:105230003296302769460F700B9C002C0DDD329D95
:1052400001236A4602A9280000F004FE002801D0CC
:1052500000F044FD641EF3D1329505980899441876
:10526000099D002D0FD0329E21780498B0470490FC
:10527000002801D100F032FD0D98401C0D90641CF7
:105280006D1EF1D13296684607700C9C002C0DDD26
:10529000329D01236A4602A9280000F0DBFD0028A8
:1052A00001D000F01BFD641EF3D1329502A8382115
:1052B000405C400700D460E62020694608700198F1
:1052C000002800DC59E6019C329D01236A4602A9B0
:1052D000280000F0BFFD002801D000F0FFFC641E94
:1052E000F3D1329549E61B4878446830059000F0C8
:1052F000D4FC0E9D002D03D5200006F035FD09E0FD
:105300002A000021200007F0DDF9002801D0001B51
:1053100000E02800089000F0C0FC349800680268A3
:10532000001D349908600020C0430021104002AAEB
:1053300003C215A80590782100F093FC02A83B2138
:10534000415C002908D00024E4434B487844FF30F6
:10535000293017E78CBDFFFF3A21405C62286AD0F4
:10536000682819D06A2845D06C2806D071284FD0FB
:10537000742831D07A2821D06FE034980068016811
:10538000001D349A106000297AD10024E4433B4880
:105390007844FF301738F5E6349800680168001D3E
:1053A000349A1060002905D10024E443334878443E
:1053B000CA30E7E60D98088000F06FFC349800686A
:1053C0000168001D349A1060002959D10024E4437B
:1053D0002A487844A630D5E6349800680168001D54
:1053E000349A106000294BD10024E44323487844C8
:1053F0008A30C7E6349800680268001D3499086056
:10540000002A13D10024E4431C4878446E30B9E6E6
:10541000349800680268001D34990860002A05D19C
:105420000024E443154878445230ABE60D98C11788
:1054300003C200F032FC349800680168001D349A01
:105440001060002905D10024E4430C4878442C3036
:1054500098E60D98087000F020FC34980068016808
:10546000001D349A106000290AD10024E443034847
:105470007844083086E600BF1CBCFFFF30BCFFFF4D
:105480000D98086000F009FC34980068C31D0720DF
:1054900083433498036003CB349D2B6002AB03C37A
:1054A0002023C80F04D007982D2115AB19540DE007
:1054B00002A8008F204204D007982B2115AB195465
:1054C00004E0C00704D5079815A90B54401C0790A9
:1054D00015A80799401813901398059024AD02A8B9
:1054E000C0C86846007820210143684681708078F2
:1054F00061280BD00E98002801D5062005E005D1C3
:1055000068468078672801D114980E9002A803C8D5
:1055100008004B005B150024E443A3420ED10903AD
:105520000CD003200890613A1A2A03D21949794411
:1055300062310FE0184979445E310BE0A3420ED18D
:1055400000030CD103200890613A1A2A1DD3134995
:105550007944483103221398FCF78EFC9DE301AA9D
:1055600002A803C807F0B9F802AA03C26846807807
:1055700061281CD1059830210170811C0591694674
:10558000097861290ED178210DE00549794410315F
:10559000E0E700BF50BBFFFF50BBFFFF54BBFFFF66
:1055A0004CBBFFFF582141700798801C079002A850
:1055B00003C82246530802400B4004D1002A02D1FE
:1055C0000024002652E168468078612800D099E0E6
:1055D0000E98002801D5212000E0401C139013985C
:1055E000401C2E90300039000022002307F08AF87A
:1055F00002A830C802D28020000645400198001F52
:10560000019024A90A7024A8461C2E98002832DD97
:105610002E9F20002900002280235B03FFF70EFA53
:1056200029D81C2207F087F804000D00FFF720FAA4
:105630002E90FF1F002F09DDFFF734F902000B0049
:1056400020002900FFF7A0FA04000D00F01D07213B
:105650002E9A002A0ADD491E08D4401E13071B0F8C
:1056600003701211F5E7401E00220270491EFAD5A0
:10567000C61D002FCDDC24A82F99711A24AA551C11
:10568000139A0C00914200DD1400002C33D48C429C
:1056900005DA411C095D082901DB0F2100E000212A
:1056A000220024AB9B1801E0641E5B1E521E1E7874
:1056B0008E42F9D00F2904D1411C895C491C401C41
:1056C0008154002A04D524AD641C0198001D01906A
:1056D000611E10D46A186846007813783033DEB241
:1056E0003A2E01DBC318C6331370491E521E00291F
:1056F000F3D5694608700E98002800D4B5E0601E06
:105700000E90B2E07F007F080198664948436649E1
:1057100005F096FB019007200199401A002805DD4D
:1057200002003000390000F06FFB0AE04242002026
:105730005E4900F069FB02000B003000390007F001
:1057400032F86A469278662A02D1019A0A3200E05B
:1057500006220E9B9A18142A00DD142224AB302452
:105760001C705C1C02E030A803C8139A002A3CDDC0
:1057700030AB03C3139230A803C8FFF78BF92E9008
:1057800006460834042530000A2105F05CFB0F00B2
:1057900030000A2105F057FB06003037601E077005
:1057A00030000A2105F04FFB0F0030000A2105F000
:1057B0004AFB0600A41E303727706D1EE3D1083463
:1057C0001398083813900028CDDD2E98FFF75AF86B
:1057D00002000B0030A803C8FFF7D6F90022344BB3
:1057E000FFF76AF830AA03C2C5E72F98201A24A948
:1057F0004D1C04E0401E0199491E01916D1C297841
:105800003029F7D069468978662902D10199491C67
:1058100006E069468978652901D1149900E00021E4
:105820000E9A5418A04200DA441E002C1DD4844263
:1058300004DA285D342801DD392100E0302122001E
:10584000681E831801E0641E5B1E521E1E788E4285
:10585000F9D0392902D1A95C491CA954002A04D5E0
:105860000500641C0198401C0190019E1395684638
:1058700000786946487007F00FF8406A007869467A
:1058800008700E9D20B2002804DC149C0448784463
:105890000E3013906846807866280BD1761C23E082
:1058A00054B8FFFF97750000A08601000000F03F8C
:1058B00084D7974168468078672846D130B2032163
:1058C000C943884247DBA84245DA761C02A8008F0C
:1058D0001299C0B2084203D120B2A84200DC0500F0
:1058E00030B22D1A00D5002537B2002F00DDBAE006
:1058F0000898411C08913021059A1154002D05DCAF
:1059000002A8008F1299C0B2084206D00898411C24
:10591000089169460978059A11547842854200DA5F
:105920006E4236B270420B90AD1920B2854200DA59
:105930002C0024B20994220013990598089BC018E2
:10594000FCF79AFA281B0C90DAE068464078612848
:1059500018D170201BE020B2A84206DA02A9098FF4
:10596000129AC9B2114200D105006D1E00D5002562
:1059700068464078672802D16520694607E04520DF
:10598000694604E068464078412801D150204870BB
:105990000898411C089113990978059A1154139895
:1059A000411C002D05DC02A8008F129AC0B21042E3
:1059B00019D00898421C08926A461278059B1A541E
:1059C000002D10DD641E20B2854200DA2C0022B2C8
:1059D0000598089BC018FCF74FFA24B208980019E4
:1059E0000890281B0B90059808994018694649783B
:1059F000017031B2002903D42B214170871C03E0D0
:105A00002D224270871C4E42002412AD300008E067
:105A10000A2105F015FA30AA03C229703098641CD7
:105A20006D1C00B20028F3DC012C08DC68464078CD
:105A300020210143652902D1302038707F1C002CC1
:105A400009D1302038707F1C07E0641E12A8005D69
:105A5000303038707F1C002CF7DC0598089940180E
:105A6000381A09904CE020B231B288421DDA22B2D5
:105A700013990598089BC018FCF7FEF924B2089802
:105A800000190890391B0B91002D05DC02A9098F24
:105A9000129AC9B2114206D069460978059A115482
:105AA0000998401C09900C952AE032B21399059888
:105AB000089BC018FCF7E0F90898C0190890A41BCF
:105AC000002D05DC02A9098F129AC9B2114205D036
:105AD000411C089169460978059A115420B2854203
